:020000040800F2
:10840000A8200020A5850008AD850008AF850008DC
:10841000B1850008B3850008B5850008000000009C
:10842000000000000000000000000000B785000808
:10843000B985000800000000BB850008C1D800080D
:10844000BF850008BF850008BF850008BF850008FC
:10845000BF850008BF85000875940008BF85000827
:10846000BF850008BF850008BF850008BF850008DC
:10847000BF850008BF850008BF850008BF850008CC
:10848000BF850008BF850008BF850008BF850008BC
:10849000BF850008BF850008BF850008BF850008AC
:1084A000BF850008BF850008BF850008BF8500089C
:1084B000BF850008BF850008BF850008BF8500088C
:1084C000BF850008BF850008BF850008BF8500087C
:1084D000BF850008BF850008B1DD0008BF85000822
:1084E00081940008BF850008BF850008BF8500088B
:1084F000BF85000800F002F800F03AF80AA090E802
:10850000000C82448344AAF10107DA4501D100F04E
:108510002FF8AFF2090EBAE80F0013F0010F18BFE1
:10852000FB1A43F0010318476C7500008C750000BE
:10853000103A24BF78C878C1FAD8520724BF30C88F
:1085400030C144BF04680C60704700000023002461
:1085500000250026103A28BF78C1FBD8520728BF53
:1085600030C148BF0B6070471FB51FBD10B510BDAF
:1085700000F062F81146FFF7F7FF06F0D7FA00F0B7
:1085800080F803B4FFF7F2FF03BC00F087F80000A7
:1085900072B6704762B6704730BF72B662B680F38B
:1085A000088870470948804709480047FEE7FEE70A
:1085B000FEE7FEE7FEE7FEE7FEE7FEE7FEE7FEE793
:1085C00004480549054A064B704700001DD90008BC
:1085D000F5840008A8160020A8200020A818002074
:1085E000A81800204FF0000200B5134694469646A6
:1085F000203922BFA0E80C50A0E80C50B1F12001B6
:10860000BFF4F7AF090728BFA0E80C5048BF0CC063
:108610005DF804EB890028BF40F8042B08BF7047C1
:1086200048BF20F8022B11F0804F18BF00F8012B33
:108630007047704770477047754600F02BF8AE469C
:1086400005006946534620F00700854618B020B55E
:10865000FFF7B6FFBDE820404FF000064FF00007DF
:108660004FF000084FF0000B21F00701AC46ACE8DA
:10867000C009ACE8C009ACE8C009ACE8C0098D4647
:10868000704710B50446AFF300802046BDE81040A7
:10869000FFF777BF004870474816002001491820AF
:1086A000ABBEFEE7260002007047000010B50024B4
:1086B0003248006840F001003049086000F066F878
:1086C00005E0601C0446B0F57A7F00D905E02B4830
:1086D000006800F002000028F3D000BF27482030D7
:1086E000006840F4007025492031086023481430A8
:1086F000006840F4007021491431086008460068A1
:1087000020F4007008601E4800681E4908401C499B
:108710000860084600680860084600680860081D90
:108720000068194908401649091D08600846006894
:108730000860084600680860084600680860084647
:10874000006808600E482C3000680D492C31086024
:108750000B483C30006820F01F0009493C3108609C
:108760000846006840F0040008600548001D0068E5
:1087700040F001000249091D086010BD00380240A8
:1087800004240140FFFEFFFCFDF7FFC010B54022AE
:108790002021002001F0D6F82021002001F032F93C
:1087A000C0221021002001F0CDF810BD01460022AA
:1087B0000D48006840F080400B4B186007E0501CEB
:1087C00080B20246B0F5FA6F01DD0020704706481E
:1087D0000838006800F002000028F0D0024850304D
:1087E000006808800120F1E708240140F8B504463C
:1087F0000D460026002000901548006840F001005A
:1088000013490860002716E06846FFF7CFFF0128EC
:1088100007D1BDF8000006444FF4FA7006F056F890
:1088200007E00B48006820F00100094908600020BB
:10883000F8BD781CC7B2A742E6DBB6FBF4F028808F
:108840000348006820F00100014908600120EFE7BB
:108850000824014010B52021002001F0C9F810BD06
:1088600010B52021002001F0CDF810BD38B5A520AD
:10887000009000BF4FF4005004466A46012105F005
:108880007BFE0A4890F8720670B140F273620021D4
:10889000064806F0A4F900BF42F201000446034A6C
:1088A00040F2736105F068FE38BD0000080B00203F
:1088B00010B500BF42F201000446084A40F273615D
:1088C00003F01EFA00B910BD044890F87206322871
:1088D00001DDFFF7CBFF00BFF5E70000080B00202C
:1088E000F8B505460020009000240026684600F0F8
:1088F00019F901286FD18A480088BDF80010884214
:1089000001DC642604E186484088BDF800108842F6
:1089100013DC8348008882494988401A0A2190FB69
:10892000F1F07F494988BDF80020511A91FBF0F021
:10893000C4B204F15A00C6B2EAE079488088BDF8B2
:108940000010884213DC7648408875498988401AAF
:108950000A2190FBF1F072498988BDF80020511A74
:1089600091FBF0F0C4B204F15000C6B2D0E06C4804
:10897000C088BDF80010884213DC694880886849C7
:10898000C988401A0A2190FBF1F06549C988BDF8F1
:108990000020511A91FBF0F0C4B204F14600C6B2B7
:1089A000B6E05F480089BDF80010884214DC5C48DE
:1089B000C0885B490989401A0A2190FBF1F05849A7
:1089C0000989BDF80020511A91FBF0F0C4B204F1FE
:1089D0003C00C6B29CE09EE051484089BDF80010C2
:1089E000884213DC4E4800894D494989401A0A21C2
:1089F00090FBF1F04A494989BDF80020511A91FBDA
:108A0000F0F0C4B204F13200C6B281E0444880897B
:108A1000BDF80010884213DC4148408940498989EB
:108A2000401A0A2190FBF1F03D498989BDF80020E8
:108A3000511A91FBF0F0C4B204F12800C6B267E00D
:108A40003748C089BDF80010884213DC344880895B
:108A50003349C989401A0A2190FBF1F03049C9898C
:108A6000BDF80020511A91FBF0F0C4B204F11E00D1
:108A7000C6B24DE02A48008ABDF80010884213DCD7
:108A80002748C0892649098A401A0A2190FBF1F03B
:108A90002349098ABDF80020511A91FBF0F0C4B2B5
:108AA00004F11400C6B233E01D48408ABDF800103E
:108AB000884213DC1A48008A1949498A401A0A2157
:108AC00090FBF1F01649498ABDF80020511A91FB3C
:108AD000F0F0C4B204F10A00C6B219E01048808A6E
:108AE000BDF80010884212DC0D48408A0C49898A82
:108AF000401A0A2190FBF1F00949898ABDF800204B
:108B0000511A91FBF0F0C4B2601CC6B200E001261D
:108B10002E700120F8BDFF2028700020FAE7000029
:108B200016FA000838B50446002000900025FFF72B
:108B300097FE69460A20FFF759FE01280CD1BDF8BF
:108B4000000040F2771100FB01F5C5F30F202080F3
:108B5000FFF780FE012038BDFFF77CFE0020FAE71A
:108B60007CB500240025002000900190FFF79EFDB9
:108B700004F00AFF2CE01A48FFF7B2FE40B3184891
:108B800002782046611CCCB20DF80020052C1FDDB8
:108B90000521684605F0B8FD9DF801009DF802101A
:108BA00008449DF803100844032190FBF1F00C49A0
:108BB0000870084600780A2802DA04F0D3FD06E0BF
:108BC000074800781E2802DA01200649887204E06E
:108BD0002846691CCDB20828CDDB00BF7CBD000053
:108BE000280000203C16002010B50C4C0FE000F0CF
:108BF0000FFE2168884209D1241F2068492802D32A
:108C000020685D2800D906E0207810BD241D0348A7
:108C1000E0308442EBD300BF5320F6E72004000885
:108C20000346186841EA40001860186810409042F6
:108C300001D1012070470020FCE7000010B504F0CE
:108C40003CFB04488288044B0021084604F0F4FEF3
:108C500010BD00003C1600205D8C000810B504F02B
:108C600033FB0A48007A401EC1B208480172007AFC
:108C700010B900F00FF810BD0448C288044B002161
:108C8000084604F0D9FE00BFF5E700003C160020BE
:108C90003D8C000810B5034804F042FF024804F080
:108CA0003FFF10BD3D8C00085D8C0008044890F823
:108CB0007206322801DB012070470020FCE700002B
:108CC000080B002010B50446012C02D1FFF7EEFF7F
:108CD00010BDFF20FCE7000010B5044623480088C3
:108CE00070B9082C00D3012404F0DCFF204931F8CE
:108CF0001410B0FBF1F201FB1200801C1B4908802C
:108D00000221012000F06AFED0B918480088401EF8
:108D100080B21649088030BB16480088401C80B2DB
:108D200014490880642804DD00200880042004F031
:108D3000D3FA00200D4908800F490880012010BD9A
:108D400000200A4908800B4908800B480088401C15
:108D500080B209490880B0F57A7F04DD00200880E0
:108D6000042004F0B9FA0020E9E700001800002010
:108D70000EFA000816000020140000202DE9F04132
:108D800006460F46042506E0681E305CFF2800D02A
:108D900003E0681EC5B2002DF6DC00BF0024601E93
:108DA00038601CE0305DFF2817D005F013F88046CE
:108DB00010E0A8F10100C0B280460B4901EBC000F1
:108DC000005D315D884205D0012101FA08F1386863
:108DD00088433860B8F1000FEBD1601CC4B2AC42DC
:108DE000E0DB2846BDE8F0812C16002030B50246B5
:108DF000002138E02C4800EB01100068D2F80B404D
:108E0000A0422ED100230BE0274800EB01100830D0
:108E1000C05CD47BA04201D1002030BD581CC3B23D
:108E2000052BF1DB204800EB0110407B401CC0B259
:108E30001D4C04EB01146073052490FBF4F504FB56
:108E40001500194C04EB01146073D47B164800EB39
:108E500001100830144D05EB01156D7B44550120C0
:108E6000DBE7481CC1B21429C4DB10480078401C61
:108E7000C0B20E4C2070142490FBF4F504FB1500D6
:108E80000A4C2070D07B084C084D2D7804EB05145B
:108E90002072D2F80B400448044D2D7800EB0510E9
:108EA00004600120B9E700007C11002008000020C8
:108EB0002DE9F04105460E4600241FE004EB441066
:108EC0001249085CC0B104EB44100844C07C123065
:108ED000C7B204EB44100A461044811C3A4630469F
:108EE00005F03EFE40B904EB4410084908444078C0
:108EF00028700120BDE8F081601CC4B2034890F8DE
:108F00007206A042DADC0020F4E70000080B002023
:108F100070B503460C460025002600210DE0585C84
:108F200080EA0502074810F8120080EA06050548A5
:108F300030F812000612481C81B2A142EFDB46EA6B
:108F4000052070BDC0F5000870B504460D461646F4
:108F5000012C04D131462846FFF7AAFF70BDFF203F
:108F6000FCE710B5002003F0FBFA10BD10B5044675
:108F7000092C3AD2DFE804F039050B11171D23291B
:108F80003100994201DA012010BD0020FCE799422E
:108F900001DC0120F8E70020F6E7994201DD01201D
:108FA000F2E70020F0E7994201DB0120ECE7002026
:108FB000EAE7994201D10120E6E70020E4E799427F
:108FC00001D00120E0E70020DEE7994203DC9A426D
:108FD00001DB0120D8E70020D6E7994201DC9A4264
:108FE00001DA0120D0E70020CEE70020CCE710B561
:108FF0000122C8214FF4FA7005F050FA10BD0000AC
:1090000010B504460020044948704A1C0121880319
:1090100000F019FA10BD00003C16002010B50446FF
:10902000FFF79EFD04F03CF901F0DCFE00F016F8BD
:1090300001200749C872074B32220021022004F0A8
:10904000FBFC054B64220021022004F0F5FC10BD5E
:109050003C16002095900008ADAD000810B5074AF9
:109060000121880300F0D8F90448401E4078062802
:1090700003DD00200149491E487010BD3D16002047
:1090800010B5034A0121880300F0DDF910BD00008E
:109090003D16002010B500243848008800F4007008
:1090A00000B110BD3648008A00F4006008B9012004
:1090B00000E000200146334A3348FFF7B1FD58B1C4
:1090C0003248807838B90120304988700122F02177
:1090D000782005F0E3F9E4E72948008A00F400600D
:1090E00000B9DEE700202949887000F0DDFA044667
:1090F000002C41D0254804704078244909788842E2
:1091000020D022480078214948700020C87204F01D
:1091100023FB1E48037801221146104602F034FD5D
:109120001A48807A012805D10222F0213C2005F05E
:10913000B5F904E00122F021502005F0AFF905F067
:1091400001F819E01148C07A012815D100200F4913
:10915000C87204F001FB0D48807A012805D1022273
:10916000F021502005F09AF904E00122F02164205A
:1091700005F094F904F0E6FF00BF92E71404024002
:1091800000000240FFFF0F00400000203C160020BE
:109190000548006800F0010028B104480249083180
:1091A0000860034808607047043C0240EFCDAB897B
:1091B0000504030210B50249024802F0D7FB10BDB6
:1091C00070090020580000200C48806840F0010021
:1091D0000A4988600A48006D08600948406D0860C7
:1091E0000748406E086007480068086005480E3070
:1091F00000680860084600687047000000300240C0
:109200000000F81F8203000870B50446394890F842
:109210007206401EA0423AD0364A92F87226521E7A
:1092200002EB4212334BD11804EB4412D018212226
:1092300005F0AAFC00BF42F20100212101FB040558
:1092400004EB44102B4942182121284605F094F9DB
:10925000284991F87216491E01EB4111254A8818D8
:109260002122002105F0BBFC00BF42F20101214890
:1092700090F87206401E212202FB001504EB4410F8
:109280001C4942182121284605F076F915E004EB27
:109290004411184A88182122002105F0A0FC00BFC3
:1092A00042F20100212101FB040504EB44101149A5
:1092B00042182121284605F05FF90E4890F8720601
:1092C000002814DD0B4890F87206401E094981F809
:1092D000720600BF42F201010748064A801A0D18C3
:1092E000054A0121284605F047F9012070BD0020FC
:1092F000FCE70000080B00207A11002070B504463E
:10930000012C10D140F273620021084805F067FC7F
:1093100000BF42F201000546044A40F2736105F0C5
:109320002BF9012070BDFF20FCE70000080B002096
:109330002DE9F0410546002400261C4890F87206ED
:1093400010B90120BDE8F0811FE004EB441017497B
:1093500008448078A84216D101260A4692F872265F
:10936000521E02EB42120B46D11804EB4412D018E5
:10937000212205F009FC0D4890F87206401E0B49A9
:1093800081F8720601E0601CC4B2084890F87206C9
:10939000A042DADC46B100BF42F201000746034AB0
:1093A00040F2736105F0E8F80120CBE7080B0020DC
:1093B00070B505460C46012D07D1322C03DA204644
:1093C000FFF722FF70BD0020FCE7FF20FAE770B531
:1093D00005460C46FF2C03D12846FFF78FFF70BDD2
:1093E0002146284602F048FC0646FF2804D03146B4
:1093F0002846FFF7DDFFF2E70120F0E7002107E054
:10940000052101E04A1E91B20029FBDC421E90B208
:109410000028F5DC7047704770B504460D461646C7
:109420006019B0F5004F02D8B4F5405F01D21120A9
:1094300070BD32462946204602F062FC08B9102071
:10944000F6E70120F4E770B504460D4616466019AC
:10945000B0F5004F02D8B4F5405F01D2112070BDC5
:1094600032462946204605F087F808B91020F6E76D
:109470000120F4E70120014908607047140401400D
:1094800010B5044802F0A2FC4FF480600249086065
:1094900010BD0000480000201404014070B50446CF
:1094A0000B46CE1701EB9676C6F38700CE1701EB7D
:1094B0009676B610A1EB8606B606350E1B4B1B68DA
:1094C00043F00103194E3360194B53F820300F2637
:1094D000AE40B343164E46F82030334653F82030A2
:1094E00004FA05F61E43124B43F82060114B1B682B
:1094F00001268E4033430F4E336002F0010343B127
:109500000C4B0C331B6801268E403343094E0C363E
:10951000336002F0020343B1064B08331E68012397
:109520008B401E43034B08331E6070BD2038024041
:10953000080001400004014010B54FF4806210495A
:10954000104805F0CFF94FF480620F490F4805F03D
:10955000C9F900200E49487088700E48C1F804010E
:1095600000200D494870012088700C48C1F80401A2
:109570000B4B03220021022004F05EFA10BD000014
:1095800068000020480000206804002058000020E7
:109590006808002065B000087009002055D6000852
:1095A000B591000870B504464FF4005000F040F942
:1095B0000546E5B91148006840F400700F4908609D
:1095C0000846006840F008000860002020604FF462
:1095D000005000F02DF905460848006820F008000A
:1095E000064908600846006820F40070086015B954
:1095F00000F010F970BD0020FCE70000043C0240C0
:1096000070B504460D464020207021782A4600207F
:1096100002F076FB70BD10B500224021104604F028
:10962000E7FF10BD38B50446A0006A46042102F0E9
:1096300067FB0098401C0090A0006A46042104F0DB
:109640009BFF38BD10B5034B0122FF21002001F024
:109650008AFE10BD0D00002070B506460C4615466A
:1096600026B1012E09D0022E12D109E0022004F009
:109670009DFD0C4804F054FA0BE004F027FF08E0CD
:109680002DB12B4605220021084604F0D5F900E053
:1096900000BF00BF24B1012C02D02046FFF7C2FF5B
:1096A00070BD000071AC00081CB500200090019056
:1096B000684601F0DDFB002454E0BDF9001004EB26
:1096C00044002A4A10561938814249DBBDF900107E
:1096D00004EB440010561930814241DABDF9021002
:1096E00004EB4400104490F901001938814237DB43
:1096F000BDF9021004EB4400104490F90100193048
:1097000081422DDABDF9041004EB4400104490F9B5
:1097100002001938814223DBBDF9041004EB440038
:10972000104490F902001930814219DA601CC0B26D
:109730000F49097888420DD10E4801780078401C05
:109740000C4A107004290BDD0020114608700848EF
:1097500000781CBD601C064908700020054908708F
:10976000601CC4B2062CA8DB0020F2E72C0000200D
:1097700044000020450000201CB51B4903C9CDE969
:1097800000011A48006840F48050184908601848E1
:10979000806840F00100164988600846007940F072
:1097A000FF00087113480068134988421AD0114914
:1097B0000A3908680E49896841F001010C4A916034
:1097C0000E49096D11600D49496D11600B49496ED3
:1097D000116011460860096801916A460821054830
:1097E00002F042F91CBD0000F0F900081C380240EC
:1097F000003002408C030008A542BD5A0000F81F4B
:10980000024800B9704700BFFCE700002CFA0008CE
:10981000002070470548006800F0020020B10220D7
:1098200002490860012070470020FCE7183C024014
:10983000014600E0491E29B10A48006800F0010015
:109840000028F7D109B9012070470648006800F4E4
:10985000F85028B14FF4F850024A10600120F3E7A5
:109860000020F1E7183C024000B50748006800F00E
:10987000020038B1FFF78CFC044803490C31086042
:109880000348086000BD0000043C0240BFAE9D8C50
:109890001615141370B505460C4616464FF4405085
:1098A000FFF7C6FF70B90AE030682860361D2D1D2D
:1098B000241F4FF44050FFF7BBFF00B101E0002C24
:1098C000F2DC00BF0CB9012070BD0020FCE70000F5
:1098D0000348006840F0020001490860704700003A
:1098E000043C0240F0B503461446154D05EB8322B7
:1098F000002022E001F00105EDB1C60802F12005CB
:1099000055F826504607F70E0F26BE40B543C70848
:1099100002F1200646F82750C60802F1200555F846
:1099200026504607F60E04FA06F63543C70802F13C
:10993000200646F827504910401C0029DADCF0BD0B
:1099400000000240F0B504460B46224D05EB842092
:10995000214D2D680126A64035431F4E356000215C
:1099600035E003F0010585B305684F000326BE40CE
:10997000B5430560868801258D40AE4386808568A5
:109980004F000326BE40B5438560C5684F000326DF
:10999000BE40B543C56095094E00B54006683543E5
:1099A00005608688C2F300158D402E438680856849
:1099B0004F00C2F38106BE403543856002F00305C7
:1099C0004E00B540C6683543C5605B10491C002B8E
:1099D000C7DCF0BD000002401C38024002460348CC
:1099E00000EB8223188A0840704700000000024004
:1099F000034B03EB8022938A8B43938270470000D2
:109A00000000024002460B46034800EB8221888A90
:109A100018438882888A70470000024010B50346C8
:109A200001221FE000210DE001EB41100F4C205CF2
:109A300030B101EB411020444078904200D106E063
:109A4000481CC1B2094890F872068842ECDC00BF9D
:109A5000064890F87206884202D11A70012010BDA3
:109A6000501CC2B2FE2ADDDB0020F8E7080B002004
:109A700070B504460D46012C03D12846FFF7CEFFF2
:109A800070BDFF20FCE7000000487047C8150020AB
:109A90002820704770B506460C461546FFF7A4F817
:109AA00028700120207070BD03460120704700001F
:109AB00003460348007A10700120087070470000C8
:109AC0001C1500202DE9F04104460D461646A078ED
:109AD000022801DCA07810B90F20BDE8F081E07801
:109AE00098B90127002028700AE0104800EBC70051
:109AF000C079297870542878401C2870781CC7B227
:109B000004F068F9B842F0DC0EE004F063F9E178A3
:109B1000884201DC0E20E0E7E078044901EBC00058
:109B2000C0793070012028700120D6E72C16002063
:109B30000346012008700248007810700120704729
:109B40003C1600200346034840681060042008705B
:109B5000012070471C15002070B506460C461546BE
:109B600001202070FFF794FF2870012070BD0000D5
:109B700010B50346987858B110480068B3F8034010
:109B8000A04205D0B3F803004FF6FF74A04212D1F3
:109B900000200870094800880C7810530878801C51
:109BA00008700648001D00680C7810510878001DE8
:109BB0000870012010BD1220FCE70000000400081E
:109BC0002DE9F04104460D461746E178207901EB76
:109BD000002086B26079822802DD0E20BDE8F08187
:109BE000B6F5004F01DB1120F8E760793044B0F59D
:109BF000004F02DD7042287001E0607928702978FA
:109C00003A46304602F07CF808B91020E6E7012019
:109C1000E4E770B506460C46154629462046FFF790
:109C2000EFFC012070BDF8B504460D4616466946A6
:109C3000201DFFF7A3F80746A078032801DA0F20BC
:109C4000F8BDE07838B104F0C5F8E178884202DD6B
:109C5000207A102801DA0E20F2E7E178012088400E
:109C60000099084040B101202870227AE0783946F6
:109C700000F090FB307003E0002028700720DFE741
:109C80000120DDE770B506460C46154604F016FCCB
:109C90000D480078F1280BD12946204604F08EF9B2
:109CA00020B1F22008490870012070BD0020FCE7B7
:109CB00005480078F22801D10120F6E7002002498A
:109CC00008700320F1E700000000002070B5044692
:109CD0000D461646E078012802D0042814D109E088
:109CE0006179207933462A4602F057F8012800D1DD
:109CF00070BD0AE06179207933462A4601F0C7FF3A
:109D000008B10120F4E700E000BF00BF1520EFE735
:109D10002DE9F043C1B080460C4616460020207065
:109D200098F80200002841DD98F8029001A800EBA5
:109D3000090501AF4A4608F10301384604F024FF43
:109D40002EE00520287017F8010B687017F8010B3A
:109D5000A8700020E870284601F094F901281FD16E
:109D600069782278501C2070B154A9782278501C50
:109D70002070B154E878401EC1B2E9702278501CBE
:109D80002070B154EA7821788819691D04F0FCFE2E
:109D90002078E9780844207020785A2800DD03E014
:109DA00001A84844B842CCD800BF48E004F012F8FB
:109DB00007463EE0244800EB0710C56800BF28793D
:109DC00001282BD18DF8007128788DF80101002031
:109DD0008DF80201E86808B32078C01C82190DF2E2
:109DE000031140A8EB689847012817D12178481C37
:109DF0002070775429782278501C2070B1549DF837
:109E000003112278501C2070B15420789DF8031162
:109E10000844207020785A2800DD09E005F1100080
:109E2000296805460068814202D22868FF28C6D901
:109E300000BF381EA7F10101CFB2BBD100BF012086
:109E400041B0BDE8F083000044FA000870B5064652
:109E50000C4615460648FEF743FD012805D1044887
:109E6000007828700120207070BD1220FCE70000EF
:109E700028000020F0B503460C460025D878FF28BE
:109E800024D10020207000211DE01B4800EB810040
:109E90000068B0B1184800EB81000068401C80B138
:109EA000481C05EB85069055134800EB81000668B9
:109EB00005EB8507501CC6512078401D2070681C9A
:109EC000C5B2481CC1B20529DFDB12E0D87810B159
:109ED000D878052801DD0F20F0BDD8781070D8782B
:109EE000401E054E06EB80000068C2F80100052008
:109EF00020700120F0E700002615002003460548E9
:109F0000807F012800D100E000201070012008703F
:109F1000704700001C15002070B506460D4614461B
:109F20001C4800884AF65521884229D11948801CCE
:109F30000068401C20B31748801C006800B3154817
:109F4000801C0068B0F1443F1AD01248801C0068A1
:109F5000B0F1883F14D00F48801C00680E49884239
:109F60000ED00C48801C00688906D1F88613C943BE
:109F7000884205D14FF00060D0F88203206002E0F3
:109F80004FF0FF302060201D00F08AF8102028706C
:109F9000012070BD8003000842455354F8B50446C3
:109FA0000E4615466946201DFEF7E8FE0746A078D6
:109FB000032801DA0F20F8BDE07838B103F00AFF7A
:109FC000E178884202DD207A102801DA0E20F2E7DB
:109FD000E178012088400099084068B1227AE07851
:109FE0002B46394602F000FA287830703278691C26
:109FF000284604F0D7FD03E0002030700720DAE7A0
:10A000000120D8E70148006870470000BC1200201A
:10A0100003460D2008700A48006810600848406830
:10A0200050600748007A10720548407A5072044820
:10A030004089508103480078107301207047000068
:10A04000BC1200200900002003460D2008700A48B9
:10A05000006810600848406850600748007A107235
:10A060000548407A5072044840895081034800787E
:10A070001073012070470000BC120020090000206E
:10A080000148007A70470000BC12002003460120FE
:10A090000870024800781070012070470900002005
:10A0A0000449096D01600349496D41600149496EE8
:10A0B000816070470000F81F2DE9F04104460D460D
:10A0C0001646A078032802DD0F20BDE8F081E07875
:10A0D00008B1A07898B90127002028700AE010483C
:10A0E00000EBC7008079297870542878401C2870CC
:10A0F000781CC7B203F06EFEB842F0DC0EE003F04D
:10A1000069FEE178884201DC0E20DEE7E078044950
:10A1100001EBC00080793070012028700120D4E765
:10A120002C1600202DE9F04104460D461646A07875
:10A13000032801DCA07810B90F20BDE8F081E07899
:10A1400090B901270020287009E00F4850F8370027
:10A15000297870502878001D2870781CC7B203F049
:10A1600039FEB842F1DC0DE003F034FEE1788842BC
:10A1700001DC0E20E1E7E078034951F8300030605F
:10A18000042028700120D8E72C1600202DE9F0418A
:10A1900004460D461646A078032801DCA07810B9C5
:10A1A0000F20BDE8F081E07898B9012700202870E1
:10A1B0000AE0104800EBC7008088297870522878A0
:10A1C000801C2870781CC7B203F004FEB842F0DC93
:10A1D0000EE003F0FFFDE178884201DC0E20E0E7AD
:10A1E000E078044901EBC0008088308002202870AC
:10A1F0000120D6E72C1600200346034800681060B3
:10A2000004200870012070471C15002070B504461A
:10A210000020087042F290700D7850530878801C2E
:10A220000870144800680D7850510878001D0870B7
:10A230001048001D00680D7850510878001D087006
:10A240004FF00060D0F800030D7850510878001DE1
:10A250000870084BF43B05E01D780E78701C087000
:10A2600095555B1C18785A2802DC18783028F3DAE8
:10A27000012070BD040400082DE9F05F82465046BD
:10A2800004F013FF80460022094B04F021FF06462C
:10A2900000224FF0814304F0ABFC044604F0D8FEEA
:10A2A000834600220A2104F0A3F9BDE8F09F0000D4
:10A2B000000024402DE9F74F86B0894614464846F1
:10A2C00004F0F3FE054600224FF0804304F000FF47
:10A2D00082468B46069804F0E8FE074600222C4B87
:10A2E00004F0F6FE054600224FF0814304F080FCA6
:10A2F00052465B46CDE9000104F07AFCCDE902014B
:10A3000004F0A6FE05AA0221049001F0F9FC102C2D
:10A310000CDA0120A040BDF81410084030B1012033
:10A32000A040BDF814108143059107E0FF2C02D135
:10A330000020059002E009B0BDE8F08F484604F027
:10A34000B4FE054600224FF0804304F0C1FE824671
:10A350008B46069804F0A9FE074600220C4B04F039
:10A36000B7FE054600224FF0814304F041FC5246FF
:10A370005B46CDE9000104F03BFCCDE9020104F0AD
:10A3800067FE05AA0221049004F0F6F800BFD2E7A8
:10A39000000024402DE9F74F86B00C469146204638
:10A3A00004F083FE054600224FF0804304F090FE47
:10A3B000CDE90201069804F078FE07460022124B10
:10A3C00004F086FE054600224FF0814304F010FCA5
:10A3D000CDE90001DDE9022304F00AFC824604F025
:10A3E00037FE05AA0221049001F08AFC012000FA40
:10A3F00009F0BDF81410084018B1012009B0BDE8FB
:10A40000F08F0020FAE700000000244010B501247E
:10A4100004E02046FFF730FF601CC4B203F0DAFC12
:10A42000A042F6DC10BD00002DE9F74F86B089464A
:10A430001446484604F039FE054600224FF080439A
:10A4400004F046FE82468B46069804F02EFE074630
:10A450000022294B04F03CFE054600224FF08143C8
:10A4600004F0C6FB52465B46CDE9000104F0C0FB98
:10A47000CDE9020104F0ECFD05AA0221049001F0EF
:10A480003FFC102C34DA0120A040BDF81410084025
:10A4900070BB0120A040BDF81410084380B20590A5
:10A4A000484604F002FE054600224FF0804304F0C7
:10A4B0000FFE82468B46069804F0F7FD0746002201
:10A4C0000D4B04F005FE054600224FF0814304F0D9
:10A4D0008FFB52465B46CDE9000104F089FBCDE9D4
:10A4E000020104F0B5FD05AA0221049004F044F82D
:10A4F00009B0BDE8F08F0000000024401748008834
:10A500004AF65521884228D11448801C0068401C16
:10A5100018B31248801C0068F8B11048801C00680D
:10A52000B0F1443F19D00D48801C0068B0F1883F5D
:10A5300013D00A48801C0068094988420DD007489A
:10A54000801C00688906D1F88613C943884204D16B
:10A550000248801C00680349486070478003000877
:10A56000424553541C15002001461E4800884AF6F7
:10A57000552290422CD11B48801C0068401C38B3E7
:10A580001848801C006818B31648801C0068B0F199
:10A59000443F1DD01348801C0068B0F1883F17D09D
:10A5A0001048801C0068104A904211D00D48801C51
:10A5B00000689206D2F88623D243904208D1094817
:10A5C000801C006888420AD00648801C00687047DA
:10A5D0000648406E884202D00448406EF7E70020EB
:10A5E000F5E7000080030008424553540000F81FBF
:10A5F00001461220704710B5044640210120FFF7A4
:10A60000F7F90220FEF7FAFE24B180210120FFF7BE
:10A61000F9F903E080210120FFF7EAF90220FEF7B3
:10A62000EDFE40210120FFF7EDF90220FEF7E6FEE6
:10A6300040210120FFF7DCF910BD10B54D22C021EB
:10A640000120FFF77FF9C0210120FFF7DBF94D2240
:10A6500020210120FFF776F920210120FFF7D2F910
:10A6600010BD70B506460024012280211046FFF778
:10A6700069F980210120FFF7C5F900251BE0402181
:10A680000120FFF7B5F90220FEF7B8FE40210120B6
:10A69000FFF7B8F90220FEF7B1FE6006040E802134
:10A6A0000120FFF79BF908B1601CC4B20220FEF73D
:10A6B000A5FE681CC5B2082DE1DB40210120FFF793
:10A6C00097F90220FEF79AFE4D2280210120FFF724
:10A6D00039F980210120FFF795F90220FEF78EFE5F
:10A6E0003046FFF788FF204670BD70B50446402114
:10A6F0000120FFF77DF90220FEF780FE002520E013
:10A7000004F0800020B180210120FFF77BF903E0F5
:10A7100080210120FFF76CF96006040E0220FEF78D
:10A720006DFE40210120FFF76DF90220FEF766FE65
:10A7300040210120FFF75CF90220FEF75FFE681C54
:10A74000C5B2082DDCDB00F030F870BD10B58021FB
:10A750000120FFF757F940210120FFF753F90220AC
:10A76000FEF74CFE80210120FFF742F90220FEF7A0
:10A7700045FE40210120FFF73BF910BD10B58021B7
:10A780000120FFF735F90220FEF738FE40210120B5
:10A79000FFF738F90220FEF731FE80210120FFF794
:10A7A00031F90220FEF72AFE10BD10B50024012267
:10A7B00080211046FFF7C6F880210120FFF722F91B
:10A7C0000220FEF71BFE40210120FFF71BF90220AB
:10A7D000FEF714FE10E0601C80B20446B0F5FA7F6C
:10A7E0000ADD4D2280210120FFF7ACF880210120F5
:10A7F000FFF708F9002010BD80210120FFF7EEF8D7
:10A800000028E8D140210120FFF7F2F80220FEF7EE
:10A81000F5FD4D2280210120FFF794F880210120D1
:10A82000FFF7F0F80220FEF7E9FD0120E3E7000062
:10A8300010B50D48408B40F400700B494883084622
:10A84000008B40F48070088300F00BFA0648408BC0
:10A8500040F48070044948830846408B40F40070FF
:10A86000488300F0FEF910BD0000024070B50024DE
:10A87000012251020020FFF765F800251AE0154873
:10A88000008B40F480701349088300F0EAF96006F9
:10A89000040E1048008A00F4007008B144F001046E
:10A8A0000C48408B40F480700A49488300F0D9F985
:10A8B000681CC5B2082DE2DB4D224FF40071002068
:10A8C000FFF740F80348008B40F40070014908830B
:10A8D000204670BD0000024070B505460C4600BF22
:10A8E000FFF734FF2846FFF700FF10B9601E041E73
:10A8F000F6D1FFF743FF0CB1012070BD0020FCE74B
:10A9000010B54D224FF480710020FFF71BF84D2247
:10A910004FF400710020FFF715F84FF4807100200C
:10A92000FFF770F84FF400710020FFF76BF810BDCF
:10A9300010B50D48008B40F400700B4908830846A1
:10A94000008B40F48070088300F08BF90648408B40
:10A9500040F48070044948830846408B40F40070FE
:10A96000488300F07EF910BD000002402DE9F0415F
:10A9700007460E4615461C46FFF7E8FE3846FFF729
:10A98000B4FEF0B13012FFF7B0FED0B1F0B2FFF775
:10A99000ACFEB0B1FFF7DAFE47F00100FFF7A5FE0D
:10A9A00078B106E00020FFF75CFE05F8010B601EA1
:10A9B000C4B2012CF6DC601EC4B20120FFF751FEC8
:10A9C0002870FFF7DBFE14B90120BDE8F0810020FC
:10A9D000FBE72DE9F04180460D4616462C4600F077
:10A9E00057F8D02000F026F800F08EF8404600F02E
:10A9F00021F800F089F800F04BF8D12000F01AF8A7
:10AA000000F082F8002707E0FFF730FF04F8010BA1
:10AA1000FFF70EFF781CC7B2701EB842F4DCFFF7D8
:10AA200025FF04F8010BFFF783FF00F053F8BDE8A2
:10AA3000F081000070B50446002523E004F080009A
:10AA400030B11248008B40F400701049088305E0D3
:10AA50000E48408B40F400700C4948836006040E99
:10AA60000A48008B40F480700849088300F0F9F828
:10AA70000648408B40F480700449488300F0F1F8A8
:10AA8000681CC5B2082DD9DB70BD00000000024073
:10AA900010B50F48008B40F400700D49088308463C
:10AAA000008B40F48070088300F0DBF80848408B8E
:10AAB00040F400700649488300F0D3F80448408B06
:10AAC00040F480700249488300F0CBF810BD0000CC
:10AAD0000000024010B50B48408B40F4007009495B
:10AAE00048830846008B40F48070088300F0B9F872
:10AAF0000448008B40F400700249088300F0B1F86C
:10AB000010BD00000000024010B542F2107424484D
:10AB1000008B40F40070224908830122491500206F
:10AB2000FEF710FF1E48008B40F480701C4908831C
:10AB300000F097F819E01A48008A00F40070A0B9F4
:10AB40001748408B40F48070154948834D224915C1
:10AB50000020FEF7F7FE1248008B40F40070104909
:10AB6000088300F07EF8002010BD201EA4F1010132
:10AB70008CB2E0D10A48408B40F480700849488389
:10AB80004D2249150020FEF7DDFE0548008B40F4FC
:10AB900000700349088300F064F80120E4E7000036
:10ABA000000002402DE9F04107460D4616461C46BE
:10ABB00020210120FEF71CFFFFF7C8FD3846FFF7F4
:10ABC00094FD98B12812FFF790FD78B1E8B2FFF735
:10ABD0008CFD58B107E016F8010BFFF786FD00B9B0
:10ABE00003E0601EC4B2002CF5DC00BFFFF7C6FD19
:10ABF00020210120FEF706FF14B90120BDE8F081F5
:10AC00000020FBE72DE9F04107460D4616461C469D
:10AC100020210120FEF7ECFEFFF798FD3846FFF7F4
:10AC200064FD90B12812FFF760FD70B1E8B2FFF744
:10AC30005CFD50B106E03046FFF757FD00B903E078
:10AC4000601EC4B2002CF6DC00BFFFF797FD202188
:10AC50000120FEF7D7FE14B90120BDE8F0810020E5
:10AC6000FBE710B5052003F031FE10BD70477047BB
:10AC7000704710B5FDF71CFE10BD00002DE9FE4F1A
:10AC800005460E4617469846002484E004EB44101F
:10AC90004549085C01287CD1012F79D14FF000098A
:10ACA00004EB44100844007A010604EB44103E4AC9
:10ACB0001044C07901EB004104EB4410104480794A
:10ACC00001EB002004EB44111144497900EB010928
:10ACD00004EB4410114608448078A84257D104EB95
:10ACE00044100844C078B04251D104EB44111144DF
:10ACF0000879434600224946FEF738F9E8B304EBE9
:10AD0000441029490844007B010604EB4410264AFC
:10AD10001044C07A01EB004104EB44101044807AE7
:10AD200001EB002004EB44111144497A00EB0109C6
:10AD300004EB441011460844143004EB4411114450
:10AD4000C97C04EB4412184B1A44927CCDE90021D3
:10AD5000029004EB44119C46614491F80EC004EB50
:10AD600044119A465144C97B0CEB01218AB204EB91
:10AD700044119C4661444B7C02E008E009E007E096
:10AD800004EB44116144487B494600F0CAFA00E0F4
:10AD900000BF601CC4B2044890F87206A0423FF79E
:10ADA00075AF0120BDE8FE8F080B002010B50C48E0
:10ADB00001880088401C0A4A1080B1F5967F0DDB9F
:10ADC000002011460880FEF75BF901210020FEF704
:10ADD00005FE012800D110BD02F0C4FC00BFFAE757
:10ADE0002A00002010B50024FFF78AFD752000F02E
:10ADF00020F8752000F01DF8682800D101240021FA
:10AE00006B2000F097F80721192000F093F8022139
:10AE10001A2000F08FF818211B2000F08BF8002179
:10AE20001C2000F087F808216B2000F083F82046F2
:10AE300010BD70B504460025FFF72AFED020FFF7AD
:10AE4000F9FDFFF761FE2046FFF7F4FDFFF75CFE1A
:10AE5000FFF71EFED120FFF7EDFDFFF755FEFFF7D0
:10AE600005FD0546FFF764FDFFF734FE284670BD7B
:10AE70002DE9FC5F8246062269463B20FFF7A9FDCB
:10AE80009DF801109DF8002041EA022108B204F06B
:10AE900033FB834604F004FB06460022234B03F0F9
:10AEA0004FFF04460022224B04F012F9804604F0C2
:10AEB0009FF800B2AAF800009DF803109DF8022048
:10AEC00041EA022108B204F017FB834604F0E8FAD5
:10AED00006460022154B03F033FF80460022144B38
:10AEE00004F0F6F8044604F083F800B2AAF8020071
:10AEF0009DF805109DF8042041EA022108B204F0F3
:10AF0000FBFA834604F0CCFA80460022074B03F09C
:10AF100017FF06460022064B04F0DAF8044604F058
:10AF200067F800B2AAF80400BDE8FC9F0000E0400A
:10AF30000000694070B505460C46FFF7A9FDD0201A
:10AF4000FFF778FDFFF7E0FD2846FFF773FDFFF7F9
:10AF5000DBFD2046FFF76EFDFFF7D6FDFFF7BAFDDC
:10AF600070BD00002DE9F0478046894614461D4615
:10AF70002046E11704EB9171C1F3870AE11704EB56
:10AF800091718910A4EB8101CFB2042000EBC700BE
:10AF9000C7B2284600F034F8C5F1040008FA00F6FC
:10AFA0000F20284100EA0900064306F00F06202C76
:10AFB00009DA114801680120A04001434FF0E02068
:10AFC000C0F800110BE00C48001D0068A4F120013E
:10AFD00001228A4010434FF0E021C1F804010748E4
:10AFE00010F80A0006FA07F10843C1B2034800F856
:10AFF0000A10BDE8F087000000E100E000E400E096
:10B000000146072323EA01021202054B18684FF696
:10B01000FF031840034B18431043014B186070475F
:10B020000CED00E00000FA052DE9F84307460D4657
:10B0300016464FF000092946384600F01DFE8046AE
:10B04000FF2801D0002402E001244FF0FF0823462E
:10B050002A4641463846009603F034FB814648466E
:10B06000BDE8F8832DE9F04104460D461746A61DBC
:10B0700004F11B0332462946204600F0FFF8012068
:10B08000BDE8F081F8B504460D266078324901EB41
:10B090000010C5680020009002F09CFE6178884294
:10B0A00052DD00BFA1782868884242D1207802286A
:10B0B00008D02078042805D02078072802D02078EE
:10B0C000092820D1A868E0B16078244901EBC000CC
:10B0D000807918B9092603F035F829E0601CA968C1
:10B0E00088470646022E23D12868CF2800D901269A
:10B0F000E07800909DF80020211D601D03F052FDB6
:10B1000016E00A2614E02078052805D020780B28C0
:10B1100002D020780D280AD1E86830B1621D694656
:10B12000601CEB689847064602E00B2600E00C2600
:10B1300009E005F11000296805460068814202D245
:10B140002868FF28AED900BF9DF80000401CE070C1
:10B1500026713046F8BD000044FA00082C16002085
:10B1600070B504460120207026480068C4F801002C
:10B1700024484168E160D4F80600224949688842C1
:10B1800008D12048407A401CC1B21E484172217447
:10B190001D4D1CE06079012818DD267C1948407A95
:10B1A000401CC1B2174841722174174D207D00F137
:10B1B00015022146284603F039FB20B9002203215D
:10B1C0000220FEF749FA2674104D00E00F4D207D55
:10B1D00000F115022146284603F028FB80B90B48F0
:10B1E000854205D1002202210846FEF735FA07E024
:10B1F0000548854204D1002203210220FEF72CFAE3
:10B2000070BD00001C1500204800002058000020E0
:10B210000146B1F1883F01D1022070470348006820
:10B22000884201D10320F8E70020F6E7040000205F
:10B23000F0B5BFB005460E4617466C4610222946AB
:10B24000601C03F0A1FC0C48407A401CC1B20A48C3
:10B25000417221740422314604F1110003F094FC80
:10B26000F27839460DF1150003F08EFC2046FFF709
:10B2700077FF3FB0F0BD00001C1500202DE9F8431A
:10B280000746884614461E4604F11103621C4146D7
:10B290003846009600F0A4F80546012827D104F1AD
:10B2A0001100FFF7EFFE0546032D20D002F054FAFF
:10B2B000FFF7DCFC607C022812D0607C05280FD0F0
:10B2C000607C072802D0607C0B2801D1012D07D0BB
:10B2D000607C092802D0607C0D2808D1012D06D0A1
:10B2E000607C00F006F860742046FFF739FFBDE887
:10B2F000F8830146881E0C280FD2DFE800F0060E06
:10B300000E0A0E070E080E0B0E0C00BF00BF032026
:10B31000704700BF00BF0620FAE700BF00BF002053
:10B32000F6E72DE9F04786B004460D4616461F465F
:10B33000DDE90F9ADDF838808DF80C40CDF80D501E
:10B34000ADF8116004208DF804008DF806808DF8AA
:10B3500005708DF80790524601A902A8FFF768FF13
:10B3600006B0BDE8F087F0B591B005460E4614462C
:10B370001F4601208DF804008DF805508DF80660F9
:10B380008DF807402246394602A803F0FDFB201D38
:10B39000C2B201AB0021084600F002F811B0F0BDC6
:10B3A000F0B585B004460D4616461F4601208DF8BF
:10B3B00008004FF08830CDF809000020ADF80D00EE
:10B3C0008DF800008DF801408DF802508DF8036073
:10B3D0003A46694601A8FFF72BFF05B0F0BD000013
:10B3E0002DE9F84F834616461C460A9F3068FE49F1
:10B3F0000968884208D03068FC49884204D0FA487D
:10B400000068401C00287DD13046FDF7EFFC10B9E4
:10B410000820BDE8F88F307901280BD1D6F8050057
:10B42000F1494968884201D00620F2E70020F0493E
:10B4300008600DE23079052807D1D6F8050020B95B
:10B44000D6F80B00EA49086002E24FF0000A00BF9C
:10B45000E848806840F00100E6498860E648006DF1
:10B460000860E548406D0860E348406E0860E348C6
:10B4700000680860E1480E3000680860084600680F
:10B480008246D6F80B00DA4908606946701DFDF760
:10B4900075FC8146009800FA0AF00090D1440098AB
:10B4A00008B90720B5E73079022833D1E278394668
:10B4B000F81C03F077FB0322611C384603F064FBA1
:10B4C000E078C01C00F0FF0800206070A070E07001
:10B4D00001251AE00120A8400099084088B1727A3D
:10B4E00009F0FF012846FEF755FF50B1E178C81971
:10B4F0004246394603F048FBE0783D54E07840444A
:10B50000E07000E0AAE1681CC5B202F063FCA8424A
:10B51000E0DC9CE1307903282AD100206070A07023
:10B52000E07001251FE00120A84000990840C0B14B
:10B53000E078C319727A09F0FF01284600F054FF41
:10B54000E078385C68B1E07817F80080E2783A4437
:10B55000511CE278D019424603F024FBE0784044C5
:10B56000E070681CC5B202F035FCA842DBDC6EE17D
:10B570003079042857D1607890BBE2783946F81CBE
:10B5800003F010FB0322611C384603F0FDFAE0785B
:10B59000C01C00F0FF0800206070A070E070012562
:10B5A00019E00120A8400099084090B1B6F80900C0
:10B5B00092497E31098889B288420AD1E178C81956
:10B5C0004246394603F0E0FAE0783D54E0784044E2
:10B5D000E070681CC5B202F0FDFBA842E1DC36E178
:10B5E000FFE702F0F7FB401E6178884201DA0E2087
:10B5F0000FE76178012088400099084088B1B6F8CB
:10B6000009007E497E31098889B28842AFD07B48E3
:10B610007E30008880B21D2803D1B6F809001E28AC
:10B62000A5D00E20F5E63079062832D1E2783946E9
:10B63000F81C03F0B7FA0322611C384603F0A4FAA1
:10B64000E078C01C00F0FF0800206070A070E0707F
:10B65000012519E00120A8400099084090B1B6F8F2
:10B660000900674901EBC501898888420AD1E17860
:10B67000C8194246394603F087FAE0783D54E0782D
:10B680004044E070681CC5B202F0A4FBA842E1DCB3
:10B69000DDE03079072832D1E2783946F81C03F032
:10B6A00081FA0322611C384603F06EFAE078C01C70
:10B6B00000F0FF0800206070A070E070012519E024
:10B6C0000120A8400099084090B1B6F809004C4903
:10B6D00001EBC501C97988420AD1E178C81942460F
:10B6E000394603F051FAE0783D54E0784044E07088
:10B6F000681CC5B202F06EFBA842E1DCA7E030791D
:10B7000014285BD16078A0BBE2783946F81C03F0BE
:10B7100049FA0322611C384603F036FAE078C01C6F
:10B7200000F0FF0800206070A070E07001251BE0B1
:10B73000334850F83500D6F80510884212D1B6F8D3
:10B7400009002E497E31098889B288420AD1E17800
:10B75000C8194246394603F017FAE0783D54E078BC
:10B760004044E070681CC5B202F034FBA842DFDC44
:10B770006DE0FFE702F02EFB401E6178884201DA9F
:10B780000E2046E660781E4951F83000D6F80510C4
:10B79000884211D1B6F8090018497E31098889B26A
:10B7A000884254D015487E30008880B21D2803D1CD
:10B7B000B6F809001E284AD00E202AE6307916284D
:10B7C00043D1E2783946F81C03F0ECF90322611CFE
:10B7D000384603F0D9F9E078C01C00F0FF080020DB
:10B7E0006070A070E0700DE01C15002042455354BD
:10B7F00004000020003002400000F81F820300080F
:10B800002C16002001251BE0154850F83500D6F80D
:10B810000510884212D1B6F80900114901EBC501A3
:10B82000898888420AD1E178C8194246394603F02E
:10B83000ABF9E0783D54E0784044E070681CC5B254
:10B8400002F0C8FAA842DFDC01E00520E1E500BF14
:10B85000D6F80B00C6F805000120DAE50420D8E58B
:10B860002C16002030B5ADF2044D02F027FE01F099
:10B8700073FF34480088402804D0802801D1324C1E
:10B8800002E000BF314C00BF00BF01AA10213048C8
:10B8900000F0C6F8FDF7BCFFC5B24022294605A856
:10B8A00003F09DF92B48059001990691FDF7B0FF33
:10B8B0000790FDF7ADFF0890FDF796F9159005AAE2
:10B8C0004421204600F0B7F8C8B301AA4FF48061C4
:10B8D00004F5806000F0A4F8C2AA74211E4800F0AC
:10B8E0009FF8C298BD90FDF793FFBE90FDF790FFC3
:10B8F000C290FDF78DFFC3904FF40061080400F083
:10B900006DF8E0B101AA4FF48061480400F093F8AB
:10B91000A8B11248406802900A480088402802D125
:10B920004FF4904001E04FF4B040039002AA082188
:10B930000748001D00F07FF80DF2044D30BDFFE711
:10B940000020F9E74C00F81F0060000800500008D4
:10B9500000040008A53CC35A000300080C14002092
:10B960000149C1F8040170477009002070B505460F
:10B970000C46607810B1012826D115E02946601DDB
:10B9800002F0DCFEC0B2207000B922E0A0780128ED
:10B9900002D11148007A00E00120E070D4F81100D3
:10B9A000FFF736FC207100BF22792178601DD4F8A2
:10B9B0000431984720B1E078401EC0B2E07010B169
:10B9C0000120607005E000BF02F0B2FB0020607053
:10B9D00000BF00BF70BD00001C15002070B50546FB
:10B9E0000C464FF480700D490860FDF73DFF03E001
:10B9F000A4F5807405F580752846FDF7D3FD012870
:10BA000002D1B4F5807FF3D8FDF762FFB4F5807FF3
:10BA100001D8012070BD0020FCE70000183C024066
:10BA2000034604E018681060121D1B1D091F002941
:10BA3000F8D1012070472DE9F04106460C46174623
:10BA400004F0030010B124F00304241DFDF70CFFE3
:10BA50003A4621463046FDF71DFF0546FDF738FF03
:10BA60002846BDE8F08100002DE9F04FC1B08046C6
:10BA70000D46924605F0030010B125F003052D1D7B
:10BA8000FDF7F2FEB8F1006F02D33148804503D3D1
:10BA9000002041B0BDE8F08FA8F1006B4FEA1B26F3
:10BAA0000BF0FF09C9F58074A54200D8ACB249E09B
:10BAB0004FF0006101EB06206A46C914FFF7B0FFA2
:10BAC000002707E009EB07001DF8000000B103E0C4
:10BAD000781C87B2A742F5DB00BFA7421CDA4FF003
:10BAE000006101EB0620FDF75DFD4090002707E0B7
:10BAF0001AF8070007EB09010DF80100781C87B25E
:10BB0000A742F5DB4FF0006101EB06206A46C9143D
:10BB1000FDF7C0FE409005E0524621464046FDF745
:10BB2000B9FE4090A54200D10DE0761C4FF000090F
:10BB3000A244A0442D1BB5F5807F02D94FF4807438
:10BB400000E0ACB2B4E700BFFDF7C2FE4098A0E74A
:10BB5000000006081CB5072269460A4802F034FFB7
:10BB600058B1DDF803309DF802209DF801109DF8D2
:10BB70000000FFF783F801201CBD00F033F800201F
:10BB8000FAE70000780A00202DE9FC4105460C4642
:10BB900016461F46104800EBC500807918B9C72C1F
:10BBA00015DDDD2C13DA8DF800508DF801408DF88D
:10BBB0000260CDF8037007226946084802F060FF72
:10BBC000074BC8220021032001F036FF01E002F0FC
:10BBD000B9FABDE8FC8100002C160020780A00208C
:10BBE00055BB000810B580220249034802F07AFED6
:10BBF00010BD0000880A0020780A002002460021BB
:10BC00000EE001EB41100A4B185C38B101EB41101A
:10BC100018444078904201D108467047481CC1B290
:10BC2000034890F872068842EBDCFF20F5E700003D
:10BC3000080B002030B503460C46012B18D100211B
:10BC40000BE001EB41100B4D285C20B101EB4110E2
:10BC5000284440785054481CC1B2064890F87206F7
:10BC60008842EEDC034890F872062070012030BD57
:10BC7000FF20FCE7080B002070B504460D46012CA0
:10BC800003D12846FFF7BAFF70BDFF20FCE72DE97E
:10BC9000F04107460E4614461D46FF2E07D12A46A0
:10BCA00021463846FFF7C6FF0120BDE8F081314646
:10BCB0003846FFF7E1FF2870FF2802D001202070EE
:10BCC000F3E70020F1E700002DE9F04104460D46BE
:10BCD000164604EB441009490844C07C1230C7B230
:10BCE00004EB44100A461044811C3A46304602F0E8
:10BCF0004BFF2F700120BDE8F0810000080B0020F1
:10BD00002DE9F04104460D46174628E0B4F5004FF2
:10BD100003D247F69C70854202D90020BDE8F0812D
:10BD200004F03F00C0F14000A84204D204F03F00FC
:10BD3000C0F1400000E028460646F3B2A1B23A4600
:10BD4000A020FEF713FE00B90BE03444AD1B3744CE
:10BD50004FF0FF31A020FEF7BFFD00B901E0002D3C
:10BD6000D4D100BF0DB90120D8E7002211461046FA
:10BD7000FDF772FC0020D1E72DE9F04104460D46A5
:10BD800016461F46012C06D13A4631462846FFF793
:10BD90009BFFBDE8F081FF20FBE72DE9F041044661
:10BDA0000D4616461F4629462046FFF765FF80468A
:10BDB000FF2808D03B46324641462046FFF7DCFFCD
:10BDC0000120BDE8F0810020FBE700002DE9F04FE5
:10BDD00091B081464FF0000A4FF0010BBCE0504695
:10BDE000411C01F0FF0A052806DD052001F074FA68
:10BDF000002062490870B7E00021032000F0F0F94C
:10BE000004460021042000F0EBF9064606F080000D
:10BE100028B10021262000F0E3F95949087004F008
:10BE2000010018B10020554908709DE004F0100091
:10BE3000E0B100250AE000217F2000F0D1F907469B
:10BE40003946484602F0FEFD681CC5B2322DF2DBD1
:10BE50004A480078CD2803DD00204849087083E077
:10BE60004648007832304549087000BF04F00200AF
:10BE7000002871D043480078C8B900214B2000F059
:10BE8000AFF904460EE000217F2000F0A9F9054635
:10BE90002946484602F0D6FD834638480078401CC3
:10BEA0003649087035480078A042ECDB49E00DF1D6
:10BEB0000A0505F1120700214B2000F091F9044614
:10BEC00032283DDA00202D4908700CE000217F2047
:10BED00000F086F901A9294A127888542748007889
:10BEE000401C2649087025480078A042EEDBE87C1B
:10BEF000B2280FD1F878BB280CD1FEF783F8E96897
:10BF0000884207D13879642804DA1D4801783879E5
:10BF10001D4A1154FEF776F8E96888420AD0FEF708
:10BF2000AFF88046184810F80800401C164901F880
:10BF3000080000BF224601A9484602F0A1FD834641
:10BF400000BF00200D490870BBF1000F04D1002292
:10BF500003210220FDF780FB4FF480610120FDF7F3
:10BF60003DFD00283FF43BAF00BF0448007808B90E
:10BF700000F0BEFA11B0BDE8F08F00001300002001
:10BF80001000002012000020C815002010B5044643
:10BF90000F480068B0F15A3F01D0122010BD0D4883
:10BFA000D0F804010C4988420AD10C48FFF7D8FCAC
:10BFB0000B4B4FF496620021084601F03DFD04E072
:10BFC0000548FFF7CDFC01F091F90120E6E70000FC
:10BFD000240000207009002051DD000855D600081B
:10BFE000E5BF000810B5032002F0E0F80148FFF7B4
:10BFF000B7FC10BD51DD00080120014908707047F1
:10C00000110000202DE9F04106460C46904600251F
:10C0100001F06CF900F096FA2146BE2000F0E0F83D
:10C020001DE04FF4805503E0142002F04FFC6D1E1C
:10C030000021032000F0D4F800F0200008B9002D02
:10C04000F2D1002707E016F8011BFF2000F0C8F826
:10C05000601EC4B27F1C322F01D2002CF3D1002C01
:10C06000DFD10921872000F0BBF84FF4C87002F03F
:10C070002DFC4FF4805506E0681E051E03D10420F8
:10C0800001F02AF908E00021032000F0A9F800F0EF
:10C09000040008B9002DEFD100BF01F027F900F02E
:10C0A00027FABDE8F081000010B52248006840F48E
:10C0B0008040204908600846006820F480400860FD
:10C0C0001C480C30006840F480401A490C3108606C
:10C0D0001848001D006840F002001649091D08605C
:10C0E00000F02CF81448008813490880084600889E
:10C0F00040F4007008800846008840F48070088092
:10C100000846008840F0040008800846008808803F
:10C110000846008840F0080008800846008808802B
:10C120000846008840F040000880FF2000F014F826
:10C1300010BD0000183802400038004010B58522BC
:10C140004FF460410120FDF7FDFB05224FF46041F3
:10C150000120FDF7C7FB10BD0146002208E0104694
:10C16000531C9AB24FF6FE73984201DB00207047D1
:10C170000F48008800F002000028F0D00C48001D95
:10C180000180002208E01046531C9AB24FF6FE735D
:10C19000984201DB0020EAE70548008800F0010032
:10C1A0000028F0D00248001D0088C0B2DFE7000080
:10C1B0000838004000F007000849098821F03801DC
:10C1C000064A11801146098841EAC00111801146D2
:10C1D000098841F04001118070470000003800409C
:10C1E00070B505460C464FF480510120FDF700FC68
:10C1F0002846FFF7B1FF2046FFF7AEFF06464FF493
:10C2000080510120FDF7FEFB304670BD38B5044675
:10C210002546E11704EB5171C91001F53F606A46EC
:10C220000121FFF76DFD2046E11704EB5171C910A4
:10C23000A4EBC102012191409DF800208A430092A5
:10C240002546E11704EB5171C91001F53F606A46BC
:10C25000012102F091F938BD10B5002220214FF4E0
:10C260003F6002F0C5F910BD70B505460C46207858
:10C27000411C2246284602F07FF970BD70B588B097
:10C2800006460D466A4620214FF43F60FFF738FD11
:10C29000304600F04BF804460020287023E0684642
:10C2A00000EBD400007804F007020121914008401F
:10C2B000C0B92C70684600EBD400007804F0070287
:10C2C000012191400843694601EBD4010870694699
:10C2D00001EBD4024FF43F6101EBD400012102F0E5
:10C2E0004BF902E0641CFF2CD9D900BF08B070BD27
:10C2F00001464FF44060802902DA00EBC10014E0EF
:10C3000000F58060A1F18002D1B2402902DA00EB91
:10C3100001100AE000F58060A1F14002D1B240298D
:10C3200002DA00EB411000E000BF70470146082927
:10C3300001DA01207047102901DA8020FAE720296C
:10C3400001DAC020F6E74FF48070F3E730B595B01E
:10C35000054605EB8501090101F5806001AA502120
:10C36000FFF7CEFC002408E001A8005D18B101A988
:10C37000085DFFF74BFF601CC4B2502CF4DB05EBEB
:10C380008501090101F580600022502102F030F999
:10C3900015B030BDF8B504460D46164604EB8401D1
:10C3A000090101F58061102202FB0511012202FB47
:10C3B00006106A460121FFF7A3FC9DF8000090B12A
:10C3C00004EB8401090101F58061102202FB0511D3
:10C3D000012202FB06100022012102F009F99DF85A
:10C3E0000000FFF713FFF8BD2DE9F84305460E46A0
:10C3F00017461C4605EB8501090101F580611022F5
:10C4000002FB0611012202FB07106A460121FFF719
:10C4100077FC9DF8000048B19DF80000FFF768FF29
:10C42000804622462021FFF76BFC01E000202070AF
:10C43000BDE8F88310B501240AE004EB840109018A
:10C4400001F580600022502102F0D2F8601CC4B2D5
:10C4500001F0C0FCA042F0DCFFF7FEFE10BD2DE9AC
:10C46000F84305460E4617461C4605EB85010901B3
:10C4700001F58061102202FB0611012202FB071068
:10C480006A460121FFF73CFC2078FFF74FFF9DF83B
:10C490000010884205D99DF80000FFF7B7FE002084
:10C4A00000909DF80000C0B920786946FFF7E6FECD
:10C4B0009DF8000010B91120BDE8F88305EB850157
:10C4C000090101F58061102202FB0611012202FB25
:10C4D00007106A46012102F04FF89DF80000FFF7AF
:10C4E00007FF80462146FFF7BFFE0120E4E700007A
:10C4F00010B505218720FFF773FE02218E20FFF77C
:10C500006FFE02218820FFF76BFE00218820FFF7D5
:10C5100067FE13218520FFF763FE80218620FFF749
:10C520005FFE00210320FFF75BFE00210420FFF7E0
:10C5300057FE0348006840F480600149086010BD60
:10C540000004014010B503218820FFF749FE0821AF
:10C550008820FFF745FE01218E20FFF741FE10BD28
:10C5600008B1012100E00021014A1170704700006C
:10C57000120000200CB50020019000903E48006899
:10C5800040F480303C49086000BF3B48006800F43C
:10C59000003000900198401C0190009818B9019853
:10C5A000B0F5A04FF1D13448006800F4003010B16C
:10C5B0000120009001E0002000900098012859D14E
:10C5C0002E48006840F004002C49086008460068C6
:10C5D00040F0020008600846006840F00100086072
:10C5E00025482430006840F08050234924310860F9
:10C5F000C8142349086000BF2148406800F01000BB
:10C600000028F9D11C48083000681B49083108602F
:10C610000846006808600846006808600846006828
:10C6200020F47D0008600846006840F411000860AE
:10C630001148006840F080700F49086000BF0E4844
:10C64000006800F000700028F9D00B48083000683E
:10C6500020F003000849083108600846006840F0EF
:10C660000300086000BF04480830006800F00C00B8
:10C670000C28F8D10CBD000000380240003C0240FC
:10C680000070004010B50446A078012801D00F20AA
:10C6900010BDE078492802DBE0785D2801DD0E203E
:10C6A000F6E7FCF7A1FAE17888420CD0E07801F0D7
:10C6B00033FC08B91220EBE7044B4FF44872002119
:10C6C000084601F0B9F90120E2E7000039D300087B
:10C6D00010B50446E078052801DCE07808B90F20A1
:10C6E00010BDE078054908720831012001F0CCF84E
:10C6F00008B91020F4E70120F2E700001C15002023
:10C7000070B50446A078022801DCA07808B90F2093
:10C7100070BDE078B8B9012510E02079164901EB29
:10C72000C501C871144800EBC500C11D012001F00E
:10C7300091FB08B91020EBE7681CC5B201F04AFB79
:10C74000A842EADC16E001F045FBE178884201DC12
:10C750000E20DDE72079E178074A02EBC101C871BC
:10C76000E07802EBC000C11D012001F073FB08B9A5
:10C770001020CDE70120CBE72C16002010B5044691
:10C78000A07808B90F2010BDE07818B90120FCF797
:10C79000B5FD05E0E078FCF7CBFD08B91720F2E71E
:10C7A0000120F0E710B50446A07810B9FCF733FF7C
:10C7B00008E0A078052805D1E1788800221D042131
:10C7C00001F0DAFE012010BD2DE9F84304460027F0
:10C7D000FCF7FAFC0746A0783844A0706946201D93
:10C7E000FCF7CCFA064646EA0700C6B2A078032852
:10C7F00002DA0F20BDE8F88301F0ECFAE178491C79
:10C800003944C9B2884205DB207A401C3844C0B2A2
:10C81000102801DD0E20EDE7A07A012817D1E0787D
:10C8200028B1E078FF2802D0207AFF2801D10E201D
:10C83000E0E7E178012088400099084028B1227A99
:10C84000E0783146FDF7F0FD72E00720D2E7A07AEC
:10C8500000286DD1E078FF283FD1C6B9207AFF28A3
:10C8600002D1FDF7D3FD63E001250BE00120A840D4
:10C870000099084020B1227A31462846FDF71AFD7A
:10C88000681CC5B201F0A6FAA842EFDC50E0012511
:10C890001EE00120A84000990840B8B1207AFF2886
:10C8A0000FD14FF0000808E0424631462846FDF718
:10C8B00001FD08F1010000F0FF08B8F1100FF3DBF3
:10C8C00004E0227A31462846FDF7F4FC681CC5B224
:10C8D00001F080FAA842DCDC2AE0E17801208840FF
:10C8E0000099084010B366B9207AFF2803D1E07898
:10C8F000FDF7C2FC1CE0227AE0783146FDF7DAFC55
:10C9000016E0207AFF280BD1002506E0E0782A46C1
:10C910003146FDF7CFFC681CC5B2102DF6DB07E0F1
:10C92000227AE0783146FDF7C5FC01E0072061E797
:10C9300001205FE710B5044618480078F22821D19D
:10C94000E079217A4840E071207AE179484020720C
:10C95000E079217A4840E0710722115BD4F80300A6
:10C9600001F0C8FA012813D10D4801F011FB78B18C
:10C97000F3200A490870FEF775FF48B101F0A6FDE3
:10C98000012010BD05480078F32801D10120F8E707
:10C990000020024908701220F3E700000000002088
:10C9A0000004000810B5044601F088FD0E48007828
:10C9B000F1280DD1E0780D490978884206D1A27896
:10C9C000D21ED1B2A088A21D01F022FB012010BD11
:10C9D00005480078F22801D10120F8E7002002493B
:10C9E00008700320F3E70000000000200100002091
:10C9F0001FB504462C4904F109020868611D01F0C5
:10CA0000BBFA00284DD0B4F8030000900D20005B65
:10CA10000390206901902448001D0068B0F1082FA0
:10CA20001FD155202149087021480088402808D08E
:10CA3000802809D0B0F5807F09D0B0F5007F0CD1F7
:10CA400008E01C4802900BE01B48029008E01B48DD
:10CA5000029005E01A48029002E01648029000BFDA
:10CA600005E0AA20114908704FF008200290E07BF1
:10CA7000694601F00DFB98B1F120124908700720BA
:10CA8000A0700948001F0088A4F803000648016848
:10CA9000C4F80510054801786172022004B010BD89
:10CAA00000BF0E20FAE70000040400080100002087
:10CAB0004C00F81F0084000800C40008009801081A
:10CAC000002803080000002070B50446A07808B9CB
:10CAD0000F2070BDE078022804D003280ED005286E
:10CAE0001FD114E02079611D01F0BDFD0546012D27
:10CAF00002D1A0700220ECE72846EAE761792079AC
:10CB0000FCF765FC012800D1E3E71520E1E7617936
:10CB10002079A21DFEF788FA012800D1D9E7162056
:10CB2000D7E700BF00BF0E20D3E7F0B585B00446BD
:10CB3000A07800282ADDA778E51C21E0A878102835
:10CB400002DD0F2005B0F0BD02208DF80000A878AE
:10CB5000C21C29460DF1010002F016F86846FEF7E6
:10CB600091FA0646012E08D0BDF80100A4F8030092
:10CB700066710320A0700220E4E7A878C01C054479
:10CB8000E01C3844A842D9D80120DBE70F20D9E7C0
:10CB900070B50546A878192806DCA878052190FB11
:10CBA000F1F201FB120008B10F2070BDA878052139
:10CBB00090FBF1F0C6B200240EE004EB8401E81C07
:10CBC000405C28B104EB8401E81C405C052801DDD1
:10CBD0000E20EAE7601CC4B2B442EEDB00240FE092
:10CBE00004EB8400401CE91C0A5804EB8401E81C97
:10CBF000405C401E084901EB80000260601CC4B22A
:10CC0000B442EDDB0449142000F03EFE08B91020C8
:10CC1000CBE70120C9E700002615002010B5044627
:10CC2000E07808B1012000E00020054988771E3136
:10CC3000012000F029FE08B9102010BD0120FCE7FA
:10CC40001C15002010B586B00446142101A8FBF77E
:10CC5000C9FC4FF0FF300090A078082802DA0F20BE
:10CC600006B010BD3B4800884AF6552188422DD1B8
:10CC70003848801C0068401C40B33648801C00685F
:10CC800020B33448801C0068B0F1443F1ED03148C6
:10CC9000801C0068B0F1883F18D02E48801C0068C6
:10CCA0002D49884212D02B48801C00688906D1F893
:10CCB0008613C943884209D14FF00060D0F882033F
:10CCC000D4F80310884209D10120C9E72348416EF6
:10CCD00007200059814201D00E20C1E7204804906E
:10CCE00054F8030F1F49896841F001011D4A916002
:10CCF0001A49096D11601949496D11601749496E4A
:10CD0000116011460860096805914AF65520ADF892
:10CD100004002068CDF8060054F80309C043CDF89C
:10CD20000A0001AA14210B48FEF79EFE80B1D4F838
:10CD3000030000906A460421442001F01DFC0A4BC8
:10CD40004FF47A720021084600F076FE012087E752
:10CD5000022085E780030008424553540000F81F75
:10CD6000A542BD5A00300240FDA400082DE9F84359
:10CD700004460027FCF728FA0746A0783841A0703F
:10CD80006946201DFBF7FAFF0646F019C6B2A078E7
:10CD9000032802DA0F20BDE8F88301F01BF80146F2
:10CDA000E078401C3844C0B2814205DB207A401C48
:10CDB0003844C0B2102801DD0E20ECE7A07A01282B
:10CDC00028D1E07828B1E078FF2802D0207AFF2827
:10CDD00001D10E20DFE7E17801208840009908406A
:10CDE000B0B1A0780938E072E07A20280EDA207A13
:10CDF000012802D1A0780938E072227AE07804F1A3
:10CE00000B033146FFF72BFBC0B2C4E70F20C2E78C
:10CE10000720C0E7A07A00286DD1E078FF283FD135
:10CE2000C6B9207AFF2802D1FFF704FB63E0012591
:10CE30000BE00120A8400099084020B1227A314639
:10CE40002846FFF7A7FA681CC5B200F0C3FFA84246
:10CE5000EFDC50E001251EE00120A84000990840C9
:10CE6000B8B1207AFF280FD14FF0000808E0E07831
:10CE700042463146FFF78EFA08F1010000F0FF0844
:10CE8000B8F1100FF3DB04E0227A31462846FFF7B1
:10CE900081FA681CC5B200F09DFFA842DCDC2AE0E4
:10CEA000E178012088400099084010B366B9207AE3
:10CEB000FF2803D1E078FFF749FA1CE0227AE078F6
:10CEC0003146FFF767FA16E0207AFF280BD10025DC
:10CED00006E0E0782A463146FFF75CFA681CC5B2E6
:10CEE000102DF6DB07E0227AE0783146FFF752FAA0
:10CEF00001E007204FE701204DE7000010B5044690
:10CF00000F4B41F288320021084600F095FDE07891
:10CF1000FF2812D10B48007802280ED1084800F0F3
:10CF2000FFFDFCF71EF8084B4FF47A72002108460B
:10CF300000F082FD002003490870012010BD0000B0
:10CF4000638F0008090000201DD7000870B5044653
:10CF5000002517480078012801D0122070BD02205A
:10CF600013490870D4F803001249086007200059DB
:10CF70004860E07A0872217B0E4841720D20015B07
:10CF80000C4841810120FFF7EBFA0B4B41F288324C
:10CF90000021084600F050FDFCF776FD05460548E7
:10CFA000007A421C0021284601F019FE0120D5E735
:10CFB00009000020BC120020638F000810B5044651
:10CFC0001048007808B1122010BD01200D490870EA
:10CFD000D4F803000C490860072000594860E07A43
:10CFE0000872217B084841720D20015B064841818F
:10CFF000064B4FF47A720021084600F01DFD012017
:10D00000E2E7000009000020BC120020F5D600086D
:10D0100010B50446002003490870034800F080FD65
:10D02000012010BD0900002099D6000870B5044603
:10D03000A078052801DCA07808B90F2070BDE07841
:10D04000B8B9012510E02079164901EBC5018871B6
:10D05000144800EBC500811D012000F0FBFE08B95B
:10D060001020EBE7681CC5B200F0B4FEA842EADC71
:10D0700016E000F0AFFEE178884201DC0E20DDE72B
:10D080002079E178074A02EBC1018871E07802EB70
:10D09000C000811D012000F0DDFE08B91020CDE7A1
:10D0A0000120CBE72C16002070B50446A078052897
:10D0B00001DCA07808B90F2070BDE078A8B901257F
:10D0C0000EE01549606841F83500084600EBC501DF
:10D0D000042000F0BFFE08B91020EDE7681CC5B2BF
:10D0E00000F078FEA842ECDC14E000F073FEE1787A
:10D0F000884201DC0E20DFE7E178074A606842F8E9
:10D100003100E07802EBC001042000F0A3FE08B972
:10D110001020D1E70120CFE72C16002070B504467F
:10D1200000F058FE0546A078012801D00F2070BD00
:10D13000E078A84201D30E20F9E7E07888B900F042
:10D1400049FE05460AE06D1E104800EB0510806898
:10D1500020B10E4901EB051188688047002DF2D1FE
:10D160000BE0E078094901EB0010806828B1E17814
:10D17000064A02EB011188688047054B3222C8211C
:10D18000012000F059FC0120D1E7000044FA00081A
:10D1900071AC000870B50446A078032801DCA078C3
:10D1A00008B90F2070BDE078B8B9012510E0A0885B
:10D1B000164901EBC5018880144800EBC500011D2C
:10D1C000022000F047FE08B91020EBE7681CC5B24A
:10D1D00000F000FEA842EADC16E000F0FBFDE1787A
:10D1E000884201DC0E20DDE7A088E178074A02EBE7
:10D1F000C1018880E07802EBC000011D022000F030
:10D2000029FE08B91020CDE70120CBE72C1600201D
:10D2100010B50446A078012801DD0F2010BDA078CC
:10D22000012805D1E07818B9022001F019F91CE0B5
:10D23000A07818B9012001F013F916E000F0CAFD3A
:10D24000E17888420FDDE07800F016FEE07800F02B
:10D25000D1FDE078FDF710F8E078FFF777F8E07897
:10D26000FCF766F801E00E20D8E70120D6E70000C1
:10D2700010B50446A078042801DCA07808B90F2076
:10D2800010BDD4F8030005490860042000F0FCFA42
:10D2900008B91020F4E70120F2E700001C15002077
:10D2A00010B544224FF400710120FCF74BFB4FF402
:10D2B00000710120FCF79CFB10BD10B54FF400710C
:10D2C0000120FCF79FFB10BD10B54FF40071012049
:10D2D000FCF78EFB10BD000010B50446024A214643
:10D2E0000220FCF7B9F910BD39D3000810B5114878
:10D2F000006820F480600F49086000218E20FEF74E
:10D300006FFF01218720FEF76BFF00218520FEF7CC
:10D3100067FF00218620FEF763FF00210320FEF750
:10D320005FFF00210420FEF75BFF022001F0C0FA3E
:10D3300010BD00000004014010B500F053F94FF497
:10D3400080510120FCF75EFB4FF400610120FCF7E7
:10D3500059FB022001F0ACFA4FF400610120FCF708
:10D3600047FB322001F0A4FA00210320FEF738FF2A
:10D3700000210420FEF734FF80218720FEF730FFD4
:10D38000022001F095FA00218720FEF729FF0021F5
:10D390008520FEF725FF00218620FEF721FF0021D2
:10D3A0000320FEF71DFF00210420FEF719FF79215D
:10D3B0008920FEF715FF06218A20FEF711FFEA21DA
:10D3C0008B20FEF70DFFEA218C20FEF709FFFC21E0
:10D3D0008D20FEF705FF00218E20FEF701FF7F481C
:10D3E00001789C20FEF7FCFE7C4841789D20FEF7EA
:10D3F000F7FE7A4881789E20FEF7F2FE7748C178E2
:10D400009F20FEF7EDFE75480179A020FEF7E8FEAB
:10D4100072484179A120FEF7E3FE70488179A2208D
:10D42000FEF7DEFE6D48C179A320FEF7D9FE6B48FA
:10D43000017AA420FEF7D4FE6848417AA520FEF7C1
:10D44000CFFE6648817AAA20FEF7CAFEAC21B02042
:10D45000FEF7C6FE0021B220FEF7C2FE0221B32075
:10D46000FEF7BEFE1021B420FEF7BAFE2821B5203B
:10D47000FEF7B6FE2D21B620FEF7B2FED421B7206E
:10D48000FEF7AEFE0021B820FEF7AAFE0021B9206B
:10D49000FEF7A6FE4221BA20FEF7A2FE4521BB20E0
:10D4A000FEF79EFE5321BC20FEF79AFE5421BD20BC
:10D4B000FEF796FE4221BF20FEF792FE4521C020D6
:10D4C000FEF78EFE5321C120FEF78AFE5421C220B2
:10D4D000FEF786FEFF21C320FEF782FEFF21C42057
:10D4E000FEF77EFEFF21C520FEF77AFEFF21C62053
:10D4F000FEF776FE3948C17AD820FEF771FE37482C
:10D50000017BE920FEF76CFE3448417BEE20FEF7FC
:10D5100067FE3248817BEF20FEF762FE2F48C17B19
:10D52000F020FEF75DFE2D48017CF120FEF758FE4D
:10D530002A48417CF220FEF753FE5221F520FEF7E7
:10D540004FFEFBF751FB493800EB80004006040E0C
:10D550002146F920FEF744FE2048C17CF620FEF764
:10D560003FFE1E48017DF720FEF73AFE0021F32022
:10D57000FEF736FE0021F420FEF732FE0A21FA20E3
:10D58000FEF72EFE0721ED20FEF72AFE2821A72018
:10D59000FEF726FE1E21FC20FEF722FE0C21FD20B8
:10D5A000FEF71EFE3221FE20FEF71AFE01220A219E
:10D5B0001046FBF773FF0223282200211846FDF7CF
:10D5C000D1FC0748006820F4806005490860FFF737
:10D5D0008DFEFEF78DFFFEF70FFD10BDF8F9000878
:10D5E0000004014010B51A48006820F48060184912
:10D5F00008604422C9140120FCF7A4F944224FF426
:10D6000080510120FCF79EF900224FF48061012037
:10D61000FCF798F9002202210120FCF793F94FF45E
:10D6200080610120FCF7EEF902210120FCF7EAF904
:10D63000442201210846FCF785F901210846FCF740
:10D64000E1F9FEF731FD0420FEF7B4FD10BD000046
:10D650000004014070B505460E4614460C4800789B
:10D66000012813D12046FBF737FB78B10022314661
:10D670002846FEF7C7FC002005490870054BC82264
:10D680000021084600F0D8F9012070BD0020FCE719
:10D6900011000020F9BF000810B5C4B01348447A47
:10D6A00000F05AF8BB208DF81000114800788DF872
:10D6B00011000F480078401C0D4908700B48007A93
:10D6C0000978884203DAFF208DF81000022404A8AC
:10D6D000B521CDE90014029004480123002201681D
:10D6E0001846FDF71EFE44B010BD0000BC1200201D
:10D6F0000A00002010B5002005490870054842893D
:10D70000007A811C044B012000F096F910BD000046
:10D710000A000020BC12002099D600083EB5002562
:10D72000FCF7B2F90546002410E00A48007A401CD4
:10D73000C0B2B621CDE901050091064801230022BF
:10D7400001681846FDF7EDFD601CC4B2022CECDB4D
:10D750003EBD0000BC120020002001490880704737
:10D760002A00002010B500204FF0E0210861282099
:10D7700000F01F0201219140214A430942F8231081
:10D7800000BFFAF705FF01210846FCF731F91D48F3
:10D79000008820F040001B4908801B48006820F4E6
:10D7A000804019490860081F006820F48040091F64
:10D7B000086015481438006840F001001249143917
:10D7C00008601148006840F080500F4908600F4819
:10D7D000006840F004000D4908600D48006840F002
:10D7E00002000B4908600846006840F00400086029
:10D7F0000846406840F48070486030BF10BD0000AB
:10D8000080E100E0003800402438024010ED00E0E4
:10D810000070004010B5044600F0F0FD00F0E2FC9E
:10D82000FDF727FAFEF7DEF9002207210220FBF7B9
:10D8300013FF044B4FF47A720021084600F0FCF805
:10D8400010BD0000D9E1000810B54FF0FF300D49C0
:10D8500008600020FCF788FE0A4948600220087230
:10D86000002048721422002106480A3001F0B7F95E
:10D870000020044988770A461F21402000F07CFEE2
:10D8800010BD00001C15002070B505460C4604496B
:10D89000611A01F140002246294600F06DFE70BD7C
:10D8A0001C15002010B5FBF7ABFF202000F01EF880
:10D8B000FBF762FFFCF7C1FEFFF73EFD10BD000065
:10D8C00010B5084800680849B0FBF1F201FB1200EE
:10D8D0000449086008460068401C086000F086F9AA
:10D8E00010BD00001C0000200084D7174FF0E0217D
:10D8F000096921F004014FF0E02211614FF47A71BF
:10D900004143C90851610021916103211161002146
:10D91000014A1160704700001C00002010B5154836
:10D92000006840F4807013490860124808300068AD
:10D93000114908400F49083108600E4800680F4936
:10D9400008400C4908600846006820F48020086000
:10D9500008480830006820F47D0006490831086056
:10D960000020091D0860FEF705FE0548006805490E
:10D97000086010BD003802400CC0FF88FEFFFEEEBC
:10D980000804000808ED00E010B500224FF4006123
:10D990001046FBF7D7FF00224FF480511046FBF7EB
:10D9A000D1FF10BD10B50122D1030220FBF7CAFF41
:10D9B0004FF400410220FCF711F8B8B90A2000F03A
:10D9C00077FF4FF400410220FCF708F870B94FF0E0
:10D9D0005A30094908604FF41651482000F068F9A0
:10D9E0000648FDF7BDFFFFF781FC10BD002002498E
:10D9F000086000BFF9E700002400002051DD0008A6
:10DA000030B503460C46194609E00846491C064D48
:10DA100005EB0010C068904201D1C8B230BDA142F0
:10DA2000F3D30020FAE70000CC12002000200149C7
:10DA300008607047C81200202DE9F041074688466B
:10DA400015461E4600BF35480088344949880844B9
:10DA5000142802DB0020BDE8F08100BF2F480088B9
:10DA60002E4A5288811832460020FFF7C9FF00BBBA
:10DA70002A4B5B881A01294BB3F800C01B1D03EB2E
:10DA80000C111B1F1B885B1CDFF890C00CF1040CF1
:10DA90000CEB031001F086F8204804880088401C35
:10DAA0001E49088000211D48001D00EB0410017074
:10DAB0000CE0304600F0B2F818480088174A528847
:10DAC000811832460020FFF79BFF441E1348001DBB
:10DAD00000EB041047701148001D00EB0410C660F5
:10DAE0004FB905B96D1C4FF0010800210B48001D0E
:10DAF00000EB041001700948001D00EB0410A0F8B1
:10DB000002800648001D00EB041045600021034818
:10DB1000001D00EB0410816001209CE7C81200206A
:10DB200070B5054616480088154A528881182A465D
:10DB30000020FFF765FF044604B3114B1B88104E0D
:10DB4000768833441B1B1A010D4B1B1D03EB04117C
:10DB5000631E0B4E361D06EB031001F023F8301F39
:10DB60000088A04205D2301F4088401E311F4880E7
:10DB700004E003480088401E0149088070BD000091
:10DB8000C812002070B5184C25E0207810B3E56865
:10DB900000202070607830B1012807D002280ED014
:10DBA000032814D10DE00120207000BF6188481EB9
:10DBB000608019B92846FFF7B3FF09E000BFA84706
:10DBC00006E0A84710B92846FFF7AAFF00E000BF0B
:10DBD00000BF00BF10340448001F0188001D00EB87
:10DBE0000110A042D1D870BDCC1200200A480AE032
:10DBF0008168491C81604268914203D300218160A1
:10DC00000121017010300449091F0A88091D01EB28
:10DC100002118142ECD87047CC1200207FB5054636
:10DC20001F4A12881E4B5B88D1181D4A10882A464D
:10DC3000FFF7E6FE044694B319480088201A01282D
:10DC400024D9601E164A121D02EB001110226846EC
:10DC500000F09AFF124B1B88E31A1A01104B1E8822
:10DC60001B1D03EB06111B1F1B885B1C0C4E361D76
:10DC700006EB031000F096FF311F0A88091D01EB27
:10DC800002101022694600F07FFF00BF04480088A0
:10DC9000401C0349088008464088401E48807FBDDC
:10DCA000C812002001480068704700001C000020D6
:10DCB00070B505460C462348006840F40030214901
:10DCC00008600846006820F4003008601D480830ED
:10DCD000006840F004001B4908310860081D006816
:10DCE00040F40030091D08608C2204210020FBF75D
:10DCF00029FE8C2208210020FBF724FE07220C219C
:10DD00000020FBF7EFFD10486843B0FBF4F00F492B
:10DD10000880081D008842F20C0108430B49091DC8
:10DD200008800846008840F4807008800846008813
:10DD300040F0200008800223262203210846FDF738
:10DD400011F970BD1838024040420F0008440040ED
:10DD500070B504460D46164609E014F8010B00F0B4
:10DD60000DF820B94FF416514820FFF7A1FF281EE7
:10DD7000A5F10101CDB2F0D1012070BD0246002114
:10DD800000E0491C0948008800F0400018B944F63A
:10DD900020608142F5D344F62060814204D20348DA
:10DDA000001D0280012070470020FCE70044004075
:10DDB00010B50648008800F0200030B10348001D6F
:10DDC0000088C1B2024800F03DFE10BD0044004092
:10DDD000480000200220704710B5002404E02046CF
:10DDE00000F008F8601CC4B2FFF7F4FFA042F6DCB4
:10DDF00010BD000010B50446054800EB0410406853
:10DE000028B1034800EB041041682046884710BD44
:10DE100044FA000870B504460D4607E005EBC4025D
:10DE2000210101F180000821FDF76AFF201EA4F105
:10DE30000101CCB2F2D170BD10B5002404E020463F
:10DE400000F01AF8601CC4B2FFF7C4FFA042F6DC71
:10DE500010BD000070B505460C460648261AF108AC
:10DE60000901803106F0070288182246294600F091
:10DE700083FB70BD2C16002010B504464FF0FF3018
:10DE80000D4941F83400002001EBC40188800120D5
:10DE9000094901EBC40188710020074901EBC40165
:10DEA000C871054901EBC402210101F1800008217C
:10DEB00000F062FB10BD00002C16002010B50224FB
:10DEC0000A490220FFF7A6FF0DE0601EC0B204461B
:10DED000074901EB0010006828B1084600EB041068
