:020000040800F2
:10540000F8260020455900084D5900084F5900085A
:105410005159000853590008555900080000000070
:1054200000000000000000000000000057590008C4
:1054300059590008000000005B590008A16F0008DE
:105440005F5900085F5900085F5900085F5900085C
:105450005F5900085F590008557700085F59000838
:105460005F5900085F5900085F5900085F5900083C
:105470005F5900085F5900085F5900085F5900082C
:105480005F5900085F5900085F5900085F5900081C
:105490005F5900085F5900085F5900085F5900080C
:1054A0005F5900085F5900085F5900085F590008FC
:1054B0005F5900085F5900085F5900085F590008EC
:1054C0005F5900085F5900085F5900085F590008DC
:1054D0005F5900085F590008DB7000085F59000839
:1054E000276900085F5900085F5900085F590008E4
:1054F0005F59000800F002F800F04AF80AA090E8AE
:10550000000C82448344AAF10107DA4501D100F07E
:105510003FF8AFF2090EBAE80F0013F0010F18BF01
:10552000FB1A43F0010318474892000068920000FC
:105530000A4410F8014B14F00F0508BF10F8015B86
:10554000240908BF10F8014B6D1E05D010F8013B6F
:105550006D1E01F8013BF9D1641E03D0641E01F8F1
:10556000015BFBD19142E4D370470000002300248B
:1055700000250026103A28BF78C1FBD8520728BF63
:1055800030C148BF0B6070471FB51FBD10B510BDBF
:1055900008F096F81146FFF7F7FF02F0EDF808F073
:1055A000B4F803B4FFF7F2FF03BC08F0BBF8000047
:1055B00072B6704762B6704730BF72B662B680F39B
:1055C0000888704780F310887047EFF3108072B638
:1055D000704700000EB50020029001900090CE4868
:1055E000006840F48030CC49086000BFCA480068B9
:1055F00000F4003001900298401C0290019818B904
:105600000298B0F5A04FF1D1C348006800F4003013
:1056100010B10120019001E00020019001980128C3
:105620005AD1BE48006840F00400BC4908600846F2
:10563000006840F0020008600846006840F0010081
:105640000860B5482430006840F08050B2492431E9
:105650000860C814B249086000BFB148406800F053
:1056600010000028F9D1AC4808300068AA49083178
:105670000860084600680860084600680860084638
:10568000006820F47D0008600846006840F41100BE
:105690000860A148006840F080709F49086000BF22
:1056A0009D48006800F000700028F9D09A48083042
:1056B000006820F003009849083108600846006837
:1056C00040F00300086000BF93480830006800F015
:1056D0000C000C28F8D187E08F48006820F4803057
:1056E0008D4908600846006840F00100086000200D
:1056F000029000BF8848006800F002000090029805
:10570000401C0290009818B90298B0F5A04FF1D152
:105710008148006800F0020010B10120009001E013
:1057200000200090009801285ED17C48006840F07D
:1057300004007A4908600846006840F002000860EA
:105740000846006840F00100086073482430006893
:1057500040F08050704924310860C81470490860D6
:1057600000BF6F48406800F010000028F9D16A4877
:105770000830006868490831086008460068086019
:105780000846006808600846006820F47D0008604C
:105790000846006820F4803008600846006840F43D
:1057A000080008605C48006840F080705A49086052
:1057B00000BF5948006800F000700028F9D0564832
:1057C0000830006820F0030053490831086008469B
:1057D000006840F00300086000BF4F4808300068D0
:1057E00000F00C000C28F8D10EBD10B54A48006836
:1057F00040F48070484908604748083000684949CB
:105800000840454908310860434800684649084057
:10581000414908600846006820F4802008603E483E
:105820000830006820F47D003B4908310860002002
:10583000091D0860FFF7CEFE3C4800683C4908603F
:1058400010BD2DE9F04105460A460026002300243C
:105850009C460027002130480830006800F00C0604
:1058600036B1042E11D0082E11D00C2E38D110E0F4
:105870002948001D0068C0F34237781C4FF001082A
:1058800008FA00F84FEAC83137E02A4935E02A49DA
:1058900033E021480830006800F470131E480830D7
:1058A000006800F44004254800EB93400378012091
:1058B00000EB945418480830006800F4803CBCF1B8
:1058C000000F06D11B485843B0FBF4F100201070C4
:1058D00005E019485843B0FBF4F1012010700CE0CA
:1058E0000D48001D0068C0F34237781C4FF00108D6
:1058F00008FA00F84FEAC83100BF00BF0648083078
:105900000068C0F30310DFF8388018F80060F14039
:1059100029600120BDE8F08100380240003C0240CF
:10592000007000400CC0FF88FEFFFEEE90030008F0
:1059300008ED00E00024F40000127A0000000020CE
:10594000090000200948804709480047FEE7FEE7B4
:10595000FEE7FEE7FEE7FEE7FEE7FEE7FEE7FEE71F
:1059600004480549054A064B70470000EB570008FC
:10597000F5540008F81E0020F8260020F82000202A
:10598000F820002008B54FF48041022000F06CF9A7
:10599000D0B91B4801680068401C194A106029B939
:1059A000184B14220021022003F060FE1448006806
:1059B000FA2811D114A000680090022004F04CFCD9
:1059C000684604F063F807E00D48006820B100F075
:1059D00004F800200A49086008BD10B501229103AF
:1059E000022000F0B3F84FF48041022000F024F9C7
:1059F000044B4FF4FA620021022003F037FE10BD81
:105A00001C00002085590008009001004A480068E9
:105A100000F0010028B1494847490831086048486A
:105A20000860704700B54448006800F0020038B1D3
:105A3000FFF7ECFF434840490C31086042480860DA
:105A400000BD3D48006840F002003B4908607047D7
:105A500039481430006800F0020028B102203649AD
:105A600014310860012070470020FCE7014600E087
:105A7000491E31B130481430006800F001000028A0
:105A8000F6D109B9032070472B481430006800F4A0
:105A9000F85030B14FF4F850274A1432106001200A
:105AA000F1E70020EFE770B504464FF40050FFF730
:105AB000DDFF0546E5B92048006840F400701E4946
:105AC00008600846006840F0080008600020206078
:105AD0004FF40050FFF7CAFF05461748006820F052
:105AE0000800154908600846006820F40070086046
:105AF00015B9FFF7ADFF70BD0020FCE770B5054696
:105B00000C4616464FF44050FFF7B0FF70B90AE05C
:105B100030682860361D2D1D241F4FF44050FFF7BC
:105B2000A5FF00B101E0002CF2DC00BF0CB90120A0
:105B300070BD0020FCE70000043C0240EFCDAB89C3
:105B400005040302BFAE9D8C16151413F0B5044670
:105B50000B46494D05EB8420484D2D680126A64093
:105B60003543464E3560002135E003F0010585B32D
:105B700005684F000326BE40B543056086880125B1
:105B80008D40AE43868085684F000326BE40B543F6
:105B90008560C5684F000326BE40B543C5609509C2
:105BA0004E00B5400668354305608688C2F300158F
:105BB0008D402E43868085684F00C2F38106BE402B
:105BC0003543856002F003054E00B540C668354395
:105BD000C5605B10491C002BC7DCF0BDF0B5034667
:105BE0001446254D05EB8322002022E001F001053B
:105BF000EDB1C60802F1200555F826504607F70E0C
:105C00000F26BE40B543C70802F1200646F82750CC
:105C1000C60802F1200555F826504607F60E04FA8C
:105C200006F63543C70802F1200646F8275049100A
:105C3000401C0029DADCF0BD02460B460E4800EBA2
:105C40008221888A18438882888A70470A4B03EB2E
:105C50008022938A8B4393827047074B03EB802209
:105C6000938A4B40938270470246034800EB82239D
:105C7000188A084070470000000002401C380240AB
:105C8000002107E0052101E04A1E91B20029FBDC5A
:105C9000421E90B20028F5DC704710B54D22C0219D
:105CA0000120FFF753FFC0210120FFF7C5FF4D2260
:105CB00020210120FFF74AFF20210120FFF7BCFF30
:105CC00010BD10B580210120FFF7B6FF4021012053
:105CD000FFF7B2FF0220FFF7D3FF80210120FFF77B
:105CE000B5FF0220FFF7CCFF40210120FFF7AEFFF8
:105CF00010BD10B580210120FFF7A8FF0220FFF79B
:105D0000BFFF40210120FFF797FF0220FFF7B8FFF8
:105D100080210120FFF790FF0220FFF7B1FF10BDA7
:105D200010B5044640210120FFF790FF0220FFF745
:105D3000A7FF24B180210120FFF77EFF03E080212F
:105D40000120FFF783FF0220FFF79AFF4021012087
:105D5000FFF772FF0220FFF793FF40210120FFF7BA
:105D600075FF10BD10B50024012280211046FFF7F9
:105D7000EDFE80210120FFF75FFF0220FFF780FF8B
:105D800040210120FFF758FF0220FFF779FF10E0C4
:105D9000601C80B20446B0F5FA7F0ADD4D228021F6
:105DA0000120FFF7D3FE80210120FFF745FF0020EF
:105DB00010BD80210120FFF757FF0028E8D14021C6
:105DC0000120FFF743FF0220FFF75AFF4D228021F9
:105DD0000120FFF7BBFE80210120FFF72DFF0220ED
:105DE000FFF74EFF0120E3E770B504464021012094
:105DF000FFF72CFF0220FFF743FF002520E004F00F
:105E0000800020B180210120FFF716FF03E08021F0
:105E10000120FFF71BFF6006040E0220FFF730FF92
:105E200040210120FFF708FF0220FFF729FF402152
:105E30000120FFF70BFF0220FFF722FF681CC5B20D
:105E4000082DDCDBFFF78EFF70BD70B50646002421
:105E5000012280211046FFF779FE80210120FFF703
:105E6000EBFE00251BE040210120FFF7EFFE0220A2
:105E7000FFF706FF40210120FFF7DEFE0220FFF7BB
:105E8000FFFE6006040E80210120FFF7EDFE08B141
:105E9000601CC4B20220FFF7F3FE681CC5B2082DD7
:105EA000E1DB40210120FFF7D1FE0220FFF7E8FEF1
:105EB0004D2280210120FFF749FE80210120FFF7BC
:105EC000BBFE0220FFF7DCFE3046FFF729FF20462D
:105ED00070BD70B505460C4600BFFFF7F2FE2846C0
:105EE000FFF782FF10B9601E041EF6D1FFF701FF15
:105EF0000CB1012070BD0020FCE72DE9F041074600
:105F00000E4615461C46FFF7DCFE3846FFF76CFFD1
:105F1000F0B13012FFF768FFD0B1F0B2FFF764FFC5
:105F2000B0B1FFF7CEFE47F00100FFF75DFF78B19B
:105F300006E00020FFF789FF05F8010B601EC4B2E0
:105F4000012CF6DC601EC4B20120FFF77EFF287032
:105F5000FFF7CFFE14B90120BDE8F0810020FBE778
:105F60002DE9F04107460D4616461C46202101202A
:105F7000FFF76CFEFFF7A5FE3846FFF735FF98B137
:105F80002812FFF731FF78B1E8B2FFF72DFF58B1C3
:105F900007E016F8010BFFF727FF00B903E0601ECA
:105FA000C4B2002CF5DC00BFFFF7A3FE20210120C6
:105FB000FFF742FE14B90120BDE8F0810020FBE7A5
:105FC0002DE9F04107460D4616461C4620210120CA
:105FD000FFF73CFEFFF775FE3846FFF705FF90B16F
:105FE0002812FFF701FF70B1E8B2FFF7FDFE50B1D4
:105FF00006E03046FFF7F8FE00B903E0601EC4B2C9
:10600000002CF6DC00BFFFF774FE20210120FFF713
:1060100013FE14B90120BDE8F0810020FBE77047B2
:106020007047704770B505460C464FF480707D4947
:106030000860FFF7F7FC03E0A4F5807405F58075B0
:106040002846FFF730FD012802D1B4F5807FF3D850
:10605000FFF7F7FCB4F5807F01D8012070BD002068
:10606000FCE72DE9F04106460C46174604F0030014
:1060700010B124F00304241DFFF7D4FC3A46214656
:106080003046FFF73BFD0546FFF7DBFC2846BDE841
:10609000F081034604E018681060121D1B1D091FE3
:1060A0000029F8D1012070472DE9F04FC1B080469A
:1060B0000D46924605F0030010B125F003052D1D95
:1060C000FFF7B0FCB8F1006F02D35748804503D307
:1060D000002041B0BDE8F08FA8F1006B4FEA1B260D
:1060E0000BF0FF09C9F58074A54200D8ACB249E0B5
:1060F0004FF0006101EB06206A46C914FFF7C9FFA3
:10610000002707E009EB07001DF8000000B103E0DD
:10611000781C87B2A742F5DB00BFA7421CDA4FF01C
:10612000006101EB0620FFF7BEFC4090002707E06E
:106130001AF8070007EB09010DF80100781C87B277
:10614000A742F5DB4FF0006101EB06206A46C91457
:10615000FFF7D4FC409005E0524621464046FFF749
:10616000CDFC4090A54200D10DE0761C4FF0000917
:10617000A244A0442D1BB5F5807F02D94FF4807452
:1061800000E0ACB2B4E700BFFFF75BFC4098A0E7CB
:106190001CB5264903C9CDE900012548006840F433
:1061A0008050234908602348806840F0010021495D
:1061B00088600846007940F0FF0008711E480068BA
:1061C0001E4988421AD01C4908390868194989684B
:1061D00041F00101174A91601949096D1160184990
:1061E000496D11601649496E1160114608600968D1
:1061F00001916A4608211048FFF756FF1CBD10495F
:10620000096D01600E49496D41600D49496E81601B
:106210007047002070474FF48070704708484C303A
:1062200000887047183C02400000060888E100081A
:106230001C380240003002403C040008A542BD5A10
:106240000000F81F08B1012100E00021F94A117097
:106250007047F94870472820704770B505460C46CE
:106260004FF480510120FFF7F1FC284600F0FAFBC3
:10627000204600F0F7FB06464FF480510120FFF75F
:10628000DBFC304670BD10B5EC48006820F480603F
:10629000EA4908604422C9140120FFF757FC442250
:1062A0004FF480510120FFF751FC00224FF4806130
:1062B0000120FFF74BFC002202210120FFF746FCE2
:1062C0004FF480610120FFF7B7FC02210120FFF7A6
:1062D000B3FC442201210846FFF738FC012108469F
:1062E000FFF7AAFC00F0E9FB042000F02DFC10BD34
:1062F0000120D3490870704710B505218720FFF7AA
:10630000ACFF02218E20FFF7A8FF02218820FFF7B3
:10631000A4FF00218820FFF7A0FF13218520FFF7AD
:106320009CFF80218620FFF798FF00210320FFF7C4
:1063300094FF00210420FFF790FFC048006840F45C
:106340008060BE49086010BD10B5BC48006820F4EC
:106350008060BA49086000218E20FFF77EFF01218E
:106360008720FFF77AFF00218520FFF776FF0021C5
:106370008620FFF772FF00210320FFF76EFF002148
:106380000420FFF76AFF022002F0F6F910BD10B5F5
:10639000FFF779FF4FF480510120FFF74DFC4FF4D8
:1063A00000610120FFF748FC022002F0E5F94FF4FC
:1063B00000610120FFF74AFC322002F0DDF90021E4
:1063C0000320FFF74AFF00210420FFF746FF80214A
:1063D0008720FFF742FF022002F0CEF9002187203C
:1063E000FFF73BFF00218520FFF737FF00218620C4
:1063F000FFF733FF00210320FFF72FFF00210420C8
:10640000FFF72BFF79218920FFF727FF06218A203C
:10641000FFF723FFEA218B20FFF71FFFEA218C20E3
:10642000FFF71BFFFC218D20FFF717FF00218E20B7
:10643000FFF713FF834801789C20FFF70EFF814888
:1064400041789D20FFF709FF7E4881789E20FFF765
:1064500004FF7C48C1789F20FFF7FFFE794801794F
:10646000A020FFF7FAFE77484179A120FFF7F5FE5B
:1064700074488179A220FFF7F0FE7248C179A32009
:10648000FFF7EBFE6F48017AA420FFF7E6FE6D48A8
:10649000417AA520FFF7E1FE6A48817AAA20FFF73A
:1064A000DCFEAC21B020FFF7D8FE0021B220FFF7C0
:1064B000D4FE0221B320FFF7D0FE1021B420FFF755
:1064C000CCFE2821B520FFF7C8FE2D21B620FFF70E
:1064D000C4FED421B720FFF7C0FE0021B820FFF78B
:1064E000BCFE0021B920FFF7B8FE4221BA20FFF719
:1064F000B4FE4521BB20FFF7B0FE5321BC20FFF7BF
:10650000ACFE5421BD20FFF7A8FE4221BF20FFF7BB
:10651000A4FE4521C020FFF7A0FE5321C120FFF7B4
:106520009CFE5421C220FFF798FEFF21C320FFF7F5
:1065300094FEFF21C420FFF790FEFF21C520FFF746
:106540008CFEFF21C620FFF788FE3E48C17AD82086
:10655000FFF783FE3B48017BE920FFF77EFE3948C9
:10656000417BEE20FFF779FE3648817BEF20FFF775
:1065700074FE3448C17BF020FFF76FFE3148017C88
:10658000F120FFF76AFE2F48417CF220FFF765FEFD
:106590005221F520FFF761FE03F050FC493800EB73
:1065A00080004006040E2146F920FFF756FE0A211E
:1065B000FA20FFF752FE0021F320FFF74EFE0021E4
:1065C000F420FFF74AFE1F48C17CF620FFF745FE86
:1065D0001C48017DF720FFF740FE0721ED20FFF763
:1065E0003CFE2821A720FFF738FE1E21FC20FFF7E4
:1065F00034FE0C21FD20FFF730FE3221FE20FFF794
:106600002CFE01220A21104600F0F2FA0223282271
:106610000021184600F0CAFA0848006820F480609B
:1066200006490860FFF790FEFFF766FEFFF760FE81
:1066300010BD00002200002088010020000401405D
:106640002100002090E1000810B503218820FFF709
:1066500004FE08218820FFF700FE01218E20FFF7AD
:10666000FCFD10BD10B50446AFF2DD22214602202C
:1066700002F090F810BD2DE9F04106460C46904618
:106680000025FFF761FEFFF7DFFF2146BE20FFF781
:10669000E4FD1DE04FF4805503E0142002F060F8A3
:1066A0006D1E00210320FFF7D8FD00F0200008B97F
:1066B000002DF2D1002707E016F8011BFF20FFF79D
:1066C000CCFD601EC4B27F1C322F01D2002CF3D14E
:1066D000002CDFD109218720FFF7BFFD4FF4C870E0
:1066E00002F03EF84FF4805506E0681E051E03D107
:1066F0000420FFF7B7FF08E000210320FFF7ADFDFE
:1067000000F0040008B9002DEFD100BFFFF71CFE18
:10671000FFF7F2FDBDE8F0812DE9F04105460F4697
:106720002C4604F11206322F2FDC204604F05BFDCC
:1067300010B10020BDE8F081E07CB2280FD1F078E4
:10674000BB280CD104F007FBE168884207D13079FF
:10675000642804DAAF4801783079AF4A115404F064
:10676000FAFAE16888420AD004F0F8FA8046AA48AA
:1067700010F80800401CA84901F8080000BF207D5F
:106780001730C1B2204604F006FD0120D2E72DE902
:10679000F04F91B080460F464FF000094FF0010ACC
:1067A000B1E04846411C01F0FF09052806DD05203F
:1067B000FFF758FF002099490870ACE00021032042
:1067C000FFF74BFD044600210420FFF746FD054678
:1067D00005F0800028B100212620FFF73EFD8D49FD
:1067E000087004F0010018B100208C49087092E094
:1067F00004F0100020B38948007818B9404601F031
:1068000019FE824600260BE000217F20FFF725FDC0
:1068100083465946404602F0A6F88246701CC6B22E
:10682000322EF1DB7D480078CD2803DD00207B4946
:10683000087070E07948007832307849087000BFFD
:1068400004F0020000285ED000214B20FFF705FD78
:10685000044611E000217F20FFF7FFFC6F49097813
:10686000322291FBF2F302FB131101AA50546B4840
:106870000078401C6949087068480078A042E9DB4C
:10688000172C2EDB6648007860B1214601A8FFF77F
:1068900043FF38B9002061490870FFF72DFD11B0A2
:1068A000BDE8F08F322C03DC404601F0C3FD824688
:1068B000322094FBF0F100FB114028B1322094FB10
:1068C000F0F100FB114000E032200646324601A9FB
:1068D000404601F0D5FF8246404601F0B3FD8246B6
:1068E00006E0224601A9384601F025FE00F0FF0A25
:1068F00000204A490870BAF1000F04D10022032198
:10690000022001F047FF4FF480610120FFF7ACF94E
:1069100000283FF446AF00BF4048007808B9FFF7B1
:10692000EBFC00BFBBE710B53E493F48FFF72FFF28
:106930004FF480603D49086010BD10B504463C48E6
:10694000008870B9082C00D3012400F01EFB3949DF
:1069500031F81410B0FBF1F201FB1200801C344935
:10696000088002210120FFF77FF9D0B93048008864
:10697000401E80B22E49088030BB2F480088401C42
:1069800080B22D490880642804DD0020088004209E
:10699000FFF768FE0020264908802849088001206A
:1069A00010BD002022490880234908802348008820
:1069B000401C80B221490880B0F57A7F04DD0020B8
:1069C00008800420FFF74EFE0020E9E770B5064678
:1069D0000C4615461A480078012819D12846FFF7B9
:1069E000ACFFA8B1002016490870164BC822002140
:1069F000084602F03BFE172C03DBB61DA4F10C0089
:106A0000C4B22A4621463046FFF735FE012070BD4C
:106A10000020FCE720000020880100202300002047
:106A2000220000204C0C00200C0200201404014025
:106A300028000020A6E100082600002024000020F5
:106A400021000020F162000810B585224FF460415A
:106A50000120FFF77BF805224FF460410120FFF78A
:106A6000BDF810BD0146002208E01046531C9AB242
:106A70004FF6FE73984201DB002070473D480088C6
:106A800000F002000028F0D03A48001D01800022EA
:106A900008E01046531C9AB24FF6FE73984201DB91
:106AA0000020EAE73348008800F001000028F0D019
:106AB0003048001D0088C0B2DFE710B52E480068DE
:106AC00040F480402C4908600846006820F480406B
:106AD000086029480C30006840F4804026490C3199
:106AE00008602548001D006840F002002249091D89
:106AF0000860FFF7A9FF1F48083800881D490839BA
:106B000008800846008840F4007008800846008825
:106B100040F4807008800846008840F00400088037
:106B20000846008808800846008840F00800088071
:106B30000846008808800846008840F04000088029
:106B4000FF20FFF78FFF10BD00F00700094908394B
:106B5000098821F03801074A083A1180114609884E
:106B600041EAC00111801146098841F040011180BD
:106B7000704700000838004018380240A44A0A4014
:106B80000243A44B1A6070470146072323EA01021F
:106B90001202A04B1B1D18684FF6FF0318409E4BB6
:106BA000184310439B4B1B1D186070472DE9F041A3
:106BB0000746884614461D4600262846FFF7E4FF90
:106BC000C5F1040007FA00F60F20284100EA08008A
:106BD000064336019148065504F01F010120884004
:106BE0006111890001F1E021C1F80001BDE8F081E7
:106BF00070B504460B46CE1701EB9676C6F38700B8
:106C0000CE1701EB9676B610A1EB8606B606350ECA
:106C1000834B1B6843F00103814E3360814B53F873
:106C200020300F26AE40B3437E4E46F82030334628
:106C300053F8203004FA05F61E437A4B43F82060DF
:106C4000794B1B6801268E403343774E336002F048
:106C5000010343B1744B0C331B6801268E40334350
:106C6000714E0C36336002F0020343B16E4B0833B1
:106C70001E6801238B401E436B4B08331E6070BDA2
:106C80000020674908390860091F0860142064491A
:106C9000091F08600020091D0860091D0860604880
:106CA0002038006840F001005D49203908605C48E8
:106CB000183800685D490840594918390860584833
:106CC000203800685A49084055492039086008466C
:106CD000006820F48020086051481838006820F4CB
:106CE000FE004F49183908600020091D08607047F0
:106CF00010B548480830006840F0040045490831A4
:106D000008604748001D006840F080504449091D54
:106D100008604848406840F480704649486008462A
:106D2000006840F0040008600846006840F0020077
:106D30000860FEF741FC10BD3748001D3549091DAC
:106D40000860704701464906354A126842F0010260
:106D5000334B1A60704700B502460023FFF790FFDF
:106D60002F482038006840F480302D4920390860D1
:106D700000BF2B4820380068400C0028F9D04FF4A1
:106D80008060274918390860901EC2B20846006822
:106D900040EA824008600846006840F4803008609D
:106DA0002548006840F03200234908601C4820381C
:106DB000006840F080701A492039086000BF184808
:106DC00020380068400E0028F9D0154818380068AF
:106DD00040F0020012491839086006E010481838DF
:106DE0000068C0F3870303F00303022BF6D100BD54
:106DF00070B504462546206810490840B0F1005F90
:106E000004D12868FEF7DBFB6868804770BD00008E
:106E100080FFFF1F08ED00E00000FA0500E400E03D
:106E20002038024008000140000401400000FFF843
:106E3000FFFFF6FE00700040003C02400000FE2F05
:106E400010B504F017FA00F07FF8FFF7A1F9FEF78C
:106E500024FFFFF79CFA10BD014636480068364A09
:106E600090422DD13348001D0068B0F1FF3F27D07C
:106E70003048001D006818B32E48001D0068B0F1AE
:106E8000443F1DD02B48001D0068B0F1883F17D04B
:106E90002848001D0068294A904211D02548001D4D
:106EA0000068244A08321268D243904208D121482F
:106EB000001D006888420AD01E48001D0068704707
:106EC0001F48406E884202D01D48406EF7E7002000
:106ED000F5E7184800681849884229D11548001D6F
:106EE0000068B0F1FF3F23D01248001D0068F8B1E0
:106EF0001048001D0068B0F1443F19D00D48001D36
:106F00000068B0F1883F13D00A48001D00680B49A3
:106F100088420DD00748001D0068064908310968FD
:106F2000C943884204D10348001D006805494860F0
:106F300070470000300400085A3CC3A54245535432
:106F40000000F81FAC1200201CB500200190FF20AB
:106F50000090694601A8FEF774FC4FF0E02000693C
:106F600020F004004FF0E02108614FF4FA5101983D
:106F7000B0FBF1F04FF0E021486100208861032070
:106F8000086100200F4908601CBD0E48006870476A
:106F90000C4800680C49086070470B48006870474F
:106FA00010B5084800680949B0FBF1F201FB120076
:106FB0000449086008460068401C086002F062FC52
:106FC00010BD00002C000020300000200084D717E6
:106FD00010B50122D1030220FEF7B8FD4FF40041A5
:106FE0000220FEF729FE00200149086010BD0000C4
:106FF0003400002070B505460C463F48006840F458
:1070000000303D4908600846006820F40030086000
:1070100039480C30006840F4003037490C310860C2
:107020008C2204210020FEF791FD8C2208210020F3
:10703000FEF78CFD07220C210020FEF7CFFD2F4824
:107040006843B0FBF4F02E490880081D008842F226
:107050000C0108432A49091D08800846008840F4AD
:10706000807008800846008840F0200008800223D5
:10707000262203210846FFF799FD70BD0246002134
:1070800000E0491C1E480838008800F0400018B98C
:1070900044F620608142F4D344F62060814204D259
:1070A0001748001F0280012070470020FCE770B5E0
:1070B00004460D46164609E014F8010BFFF7DEFF03
:1070C00020B94FF416514820FFF794FF281EA5F170
:1070D0000101CDB2F0D1012070BD10B508480838CB
:1070E000008800F0200030B10548001F0088C1B2C0
:1070F000044801F038FC10BD1838024040420F002F
:10710000084400400C020020704770477047014659
:107110001220704710B5402220210020FEF716FDF6
:1071200020210020FEF788FDC02210210020FEF75C
:107130000DFD10BD10B520210020FEF77DFD10BD16
:1071400010B520210020FEF781FD10BD10B50024F0
:107150005E48006840F001005C490860FFF7DAFF14
:1071600005E0601C0446B0F57A7F00D905E0574879
:10717000006800F002000028F3D000BF5348203020
:10718000006840F400705149203108604F481430C5
:10719000006840F400704D491431086008460068EA
:1071A00020F4007008604A4800684A49084048498D
:1071B0000860084600680860084600680860081D06
:1071C0000068454908404249091D086008460068B2
:1071D00008600846006808600846006808600846BD
:1071E000006808603A482C30006839492C31086042
:1071F00037483C30006820F01F0035493C310860BA
:107200000846006840F0040008603148001D00682E
:1072100040F001002E49091D086010BD0146002202
:107220002B48001D006840F08040294B1B1D186052
:1072300007E0501C80B20246B0F5FA6F01DD002075
:1072400070472348001F006800F002000028F0D0BB
:107250001F485430006808800120F1E7F8B5044663
:107260000D460026002000901948001D006840F0DF
:1072700001001749091D0860002718E06846FFF75C
:10728000CDFF012807D1BDF8000006444FF4FA7085
:1072900001F066FA09E00E48001D006820F00100C8
:1072A0000B49091D08600020F8BD781CC7B2A74231
:1072B000E4DBB6FBF4F028800548001D006820F0F0
:1072C00001000349091D08600120EDE70038024074
:1072D00004240140FFFEFFFCFDF7FFC038B5044663
:1072E000002000900025FFF725FF69460A20FFF7E0
:1072F000B5FF01280CD1BDF8000040F2771100FB6A
:1073000001F5C5F30F202080FFF71AFF012038BDDB
:10731000FFF716FF0020FAE7F8B5054600200090B9
:10732000002400266846FFF7D9FF01286FD18A485C
:107330000088BDF80010884201DC642604E186481C
:107340004088BDF80010884213DC834800888249D9
:107350004988401A0A2190FBF1F07F494988BDF81D
:107360000020511A91FBF0F0C4B204F15A00C6B2E9
:10737000EAE079488088BDF80010884213DC76483E
:10738000408875498988401A0A2190FBF1F07249BA
:107390008988BDF80020511A91FBF0F0C4B204F1C5
:1073A0005000C6B2D0E06C48C088BDF800108842DA
:1073B00013DC694880886849C988401A0A2190FB13
:1073C000F1F06549C988BDF80020511A91FBF0F031
:1073D000C4B204F14600C6B2B6E05F480089BDF809
:1073E0000010884214DC5C48C0885B490989401A57
:1073F0000A2190FBF1F058490989BDF80020511A83
:1074000091FBF0F0C4B204F13C00C6B29CE09EE0F7
:1074100051484089BDF80010884213DC4E4800896D
:107420004D494989401A0A2190FBF1F04A4949899E
:10743000BDF80020511A91FBF0F0C4B204F1320003
:10744000C6B281E044488089BDF80010884213DC50
:107450004148408940498989401A0A2190FBF1F04E
:107460003D498989BDF80020511A91FBF0F0C4B262
:1074700004F12800C6B267E03748C089BDF80010A3
:10748000884213DC344880893349C989401A0A216B
:1074900090FBF1F03049C989BDF80020511A91FBE9
:1074A000F0F0C4B204F11E00C6B24DE02A48008AD2
:1074B000BDF80010884213DC2748C0892649098A94
:1074C000401A0A2190FBF1F02349098ABDF80020F7
:1074D000511A91FBF0F0C4B204F11400C6B233E0CB
:1074E0001D48408ABDF80010884213DC1A48008A03
:1074F0001949498A401A0A2190FBF1F01649498A34
:10750000BDF80020511A91FBF0F0C4B204F10A005A
:10751000C6B219E01048808ABDF80010884212DC1B
:107520000D48408A0C49898A401A0A2190FBF1F0E3
:107530000949898ABDF80020511A91FBF0F0C4B2C4
:10754000601CC6B200E001262E700120F8BDFF20AD
:1075500028700020FAE70000AEE1000810B5002214
:107560004FF400611046FEF7F1FA00224FF480510B
:107570001046FEF7EBFA10BDF0B502464B1E12E0C6
:10758000002000250CE0165C17187F78BE4206DD4F
:10759000145C161876781654161874700546401C3C
:1075A0009842F0DB2B46002BEADCF0BD7CB50024D2
:1075B0000025002000900190FFF7C8FDFFF7CEFFE7
:1075C0002CE02448FFF7A8FE40B32248027820466A
:1075D000611CCCB20DF80020052C1FDD052168468A
:1075E000FFF7CAFF9DF801009DF8021008449DF8BE
:1075F00003100844032190FBF1F016490870084677
:1076000000780A2802DA00F03EF806E01148007817
:107610001E2802DA01201049887204E02846691CFD
:10762000CDB20828CDDB00BF7CBD70B506460C4648
:1076300015460848FFF770FE012805D10548007877
:1076400028700120207070BD1220FCE70346012045
:1076500070470000380000200002002010B5022210
:1076600001210020FEF772FA10BD00203B4908807E
:10767000704710B501210020FEF7F6FA012801D16C
:10768000FFF7F3FF10BD10B500204FF0E0210861B7
:10769000282000F01F0201219140314A430942F89D
:1076A000231000BFFDF784FF01210846FEF7CEFA44
:1076B0002C48008820F040002A4908802A480068A9
:1076C00020F4804028490860081F006820F48040AA
:1076D000091F086024481438006840F0010022495E
:1076E000143908602048006840F080501E49086046
:1076F0001E48006840F004001C4908601C480068EF
:1077000040F002001A4908600846006840F0040092
:1077100008600846406840F48070486030BF10BD83
:1077200010B50E4801880088401C0C4A1080B1F545
:10773000967F0DDB00201146088000F06CFC0121D3
:107740000020FEF791FA012800D110BDFFF79BFF42
:1077500000BFFAE701200749086070473A0000209F
:1077600080E100E0003800402438024010ED00E0E5
:10777000007000401404014001F01EFFFFF760FBA1
:107780004FF4FA610520FFF7BFFC00F0CDFDFEF7D6
:1077900046FCFEF722F9FFF71BFC00F017F809E0A2
:1077A0000549064800F0A0FC0549064800F09CFC8D
:1077B00002F033F8F4E700002C0A00200C0200204D
:1077C0006C0D00204C0C00200220704710B50224E4
:1077D0000B49022002F0B7FD0FE0601EC0B2044664
:1077E00000EB8000074951F8200030B104EB840021
:1077F0000A4652F8201020468847002CEDD110BDD3
:10780000EC010020C4E1000870B505460C4600F00C
:1078100052F9D02000F008FA00F083F9284600F071
:1078200003FA00F07EF9204600F0FEF900F079F945
:1078300000F060F970BD70B50446002500F03BF91A
:10784000D02000F0F1F900F06CF9204600F0ECF9DE
:1078500000F067F900F02FF9D12000F0E5F900F011
:1078600060F900F00CFA054600F0C2F900F042F9A8
:10787000284670BD10B5002400F005F97520FFF70B
:10788000DAFF7520FFF7D7FF682800D10124002117
:107890006B20FFF7B9FF07211920FFF7B5FF022181
:1078A0001A20FFF7B1FF18211B20FFF7ADFF0021C1
:1078B0001C20FFF7A9FF08216B20FFF7A5FF20463A
:1078C00010BD1CB5044606226946432000F062FA4A
:1078D0009DF801009DF8001040EA012000B22080D0
:1078E0009DF803009DF8021040EA012000B260807C
:1078F0009DF805009DF8041040EA012000B2A08028
:107900001CBD2DE9FC5F8246062269463B2000F043
:1079100041FA9DF801109DF8002041EA022108B2C9
:1079200006F0D4FB834606F0A5FB06460022244B56
:1079300005F0D8FF04460022224B06F0B3F980463A
:1079400006F028F900B2AAF800009DF803109DF88F
:10795000022041EA022108B206F0B8FB834606F095
:1079600089FB06460022164B05F0BCFF804600222C
:10797000144B06F097F9044606F00CF900B2AAF889
:1079800002009DF805109DF8042041EA022108B28A
:1079900006F09CFB834606F06DFB80460022084BF8
:1079A00005F0A0FF06460022064B06F07BF90446D0
:1079B00006F0F0F800B2AAF80400BDE8FC9F000051
:1079C0000000E0400000694010B544224FF400710F
:1079D0000120FEF7BBF84FF400710120FEF736F9E5
:1079E00010BD10B54FF400710120FEF725F910BD50
:1079F00010B54FF400710120FEF728F910BD10B545
:107A00001B480078012809D100201949087002207C
:107A1000184908700320184908700CE014480078D1
:107A2000022808D100201249087006201149087068
:107A30000320114908700F48007850B10D480078B4
:107A4000401E0C4908704FF400710120FEF7F4F855
:107A50000CE00948007848B107480078401E064904
:107A600008704FF400710120FEF7F0F810BD00001F
:107A70003C0000203D0000203E00002010B5052005
:107A800000F06EFE10BD10B54D224FF48071002045
:107A9000FEF75CF84D224FF400710020FEF756F817
:107AA0004FF480710020FEF7C7F84FF400710020FA
:107AB000FEF7C2F810BD10B5CE48008B40F4007040
:107AC000CC4908830846008B40F480700883FFF798
:107AD000D5FFC848408B40F40070C6494883FFF783
:107AE000CDFFC448408B40F48070C2494883FFF703
:107AF000C5FF10BD10B5BF48408B40F40070BD49B4
:107B000048830846008B40F480700883FFF7B6FF77
:107B1000B848008B40F40070B6490883FFF7AEFF09
:107B200010BD10B542F21074B248008B40F40070E2
:107B3000B0490883012249150020FEF707F8AD4837
:107B4000008B40F48070AB490883FFF797FF19E082
:107B5000A848008A00F40070A0B9A648408B40F401
:107B60008070A44948834D2249150020FDF7EEFF9F
:107B7000A048008B40F400709E490883FFF77EFF09
:107B8000002010BD201EA4F101018CB2E0D1994863
:107B9000408B40F48070974948834D22491500205E
:107BA000FDF7D4FF9348008B40F40070914908839F
:107BB000FFF764FF0120E4E710B58E48408B40F4E6
:107BC00000708C4948830846008B40F4807008831D
:107BD000FFF754FF8748408B40F480708549488305
:107BE0000846408B40F400704883FFF747FF10BD04
:107BF00010B58048008B40F400707E490883084629
:107C0000008B40F480700883FFF738FF7948408B81
:107C100040F48070774948830846408B40F40070F8
:107C20004883FFF72BFF10BD70B50446002523E005
:107C300004F0800030B16F48008B40F400706D4953
:107C4000088305E06B48408B40F400706949488325
:107C50006006040E6748008B40F480706549088315
:107C6000FFF70CFF6348408B40F480706149488304
:107C7000FFF704FF681CC5B2082DD9DB70BD70B5D5
:107C80000024012251020020FDF760FF00251AE0C8
:107C90005848008B40F4807056490883FFF7EEFE89
:107CA0006006040E5348008A00F4007008B144F0E6
:107CB00001045048408B40F480704E494883FFF7E0
:107CC000DDFE681CC5B2082DE2DB4D224FF40071C9
:107CD0000020FDF73BFF4748008B40F4007045490A
:107CE0000883204670BD70B505460C46FFF7E3FEDD
:107CF000D020FFF799FFFFF714FF2846FFF794FF06
:107D0000FFF70FFF2046FFF78FFFFFF70AFFFFF790
:107D1000F1FE70BD70B50446FFF7CDFED020FFF731
:107D200083FFFFF7FEFE2046FFF77EFFFFF7F9FE19
:107D3000FFF7C1FED120FFF777FFFFF7F2FEFFF755
:107D40009EFF0546FFF754FFFFF7D4FE284670BD9F
:107D50002DE9F04180460C4615462746FFF7ABFE5D
:107D6000D020FFF761FFFFF7DCFE4046FFF75CFF26
:107D7000FFF7D7FE002607E03878FFF755FFFFF73B
:107D8000D0FE7F1C701CC6B2AE42F5DBFFF7B2FE20
:107D9000BDE8F0812DE9F04180460D4616462C469F
:107DA000FFF789FED020FFF73FFFFFF7BAFE4046FE
:107DB000FFF73AFFFFF7B5FEFFF77DFED120FFF793
:107DC00033FFFFF7AEFE002707E0FFF758FF04F888
:107DD000010BFFF7F1FE781CC7B2701EB842F4DC4D
:107DE000FFF74DFF04F8010BFFF702FFFFF782FEDC
:107DF000BDE8F0810000024010B5924801F0A8FCF7
:107E0000914801F0A5FC10BD10B5FFF7F1FD8F48BA
:107E1000007A401EC1B28D480172007A10B9FFF796
:107E2000EBFF10BD8948C288864B0021084601F04F
:107E30001DFC00BFF5E710B5FFF7D3FD834882882E
:107E4000814B0021084601F011FC10BD1CB500203B
:107E5000009001906846FFF754FD002454E0BDF9FE
:107E6000001004EB44007A4A10561938814249DB6D
:107E7000BDF9001004EB440010561930814241DA7C
:107E8000BDF9021004EB4400104490F901001938C8
:107E9000814237DBBDF9021004EB4400104490F935
:107EA0000100193081422DDABDF9041004EB4400C1
:107EB000104490F902001938814223DBBDF9041007
:107EC00004EB4400104490F902001930814219DAA1
:107ED000601CC0B25F49097888420DD15E480178C4
:107EE0000078401C5C4A107004290BDD002011460C
:107EF0000870584800781CBD601C56490870002066
:107F000055490870601CC4B2062CA8DB0020F2E7BB
:107F10000346186841EA4000186018681040904213
:107F200001D1012070470020FCE710B500244B4828
:107F3000008800F4007000B110BD4948008A00F4C8
:107F4000006008B9012000E000200146454A46488B
:107F5000FFF7DEFF58B13D48807838B901203B4932
:107F600088700122F021782005F004FCE4E73C4809
:107F7000008A00F4006000B9DEE700203349887011
:107F8000FFF764FF0446002C43D03048047040786B
:107F90002E490978884221D02C4800782B49487016
:107FA0000020C872FFF761FB2848037801221146C0
:107FB000104600F081FD2548807A012805D1022273
:107FC000F0213C2005F0D6FB04E00122F0215020F6
:107FD00005F0D0FB012002F008F81AE01B48C07A37
:107FE000012816D100201949C872FFF73EFB174837
:107FF000807A012805D10222F021502005F0BAFB39
:1080000004E00122F021642005F0B4FB012001F01E
:10801000ECFF00BF90E710B50C4A521C0121880309
:1080200002F046FE10BD10B5084A521C012188031B
:1080300002F055FE05484078062802DD002003497D
:10804000487010BD377E0008097E0008000200203D
:108050004000002058000020590000201404024075
:1080600000000240FFFF0F005400002010B504463E
:10807000FFF79CFAFFF7A8FCFFF7FCFBFFF7D3FF25
:1080800001201649C872164B32220021022001F04D
:10809000EDFA144B64220021022001F0E7FA10BD32
:1080A0000320704710B5044600200C4948704A1C54
:1080B0000121880302F0FCFD10BD03460120087079
:1080C0000648007810700120704710B50122C821C1
:1080D0004FF4FA7005F04EFB10BD000000020020C6
:1080E0002B7F00082177000870B505460C466078A4
:1080F00010B1012824D113E02946A01DD4F80C2189
:108100009047C0B2207000B91FE000206071A078D5
:10811000012802D1B148007A00E00120E07000BFE0
:1081200062792178A01DD4F80831984720B1E07811
:10813000401EC0B2E07010B10120607005E000BFC9
:10814000FEF726FF0020607000BF00BF70BD10B5B5
:10815000A349A448FFF7C8FFA349A448FFF7C4FFF9
:1081600010BD2DE9F04104460E461746254631461E
:10817000284604F018FB012805D12878032800D1EF
:1081800000E000BF00BF0120BDE8F0810146881E6D
:108190000C280FD2DFE800F0060E0E0A0E070E08BC
:1081A0000E0B0E0C00BF00BF0320704700BF00BFC6
:1081B0000620FAE700BF00BF0020F6E7F8B5044646
:1081C0000D26607800EB8000894901EB8000C568CE
:1081D000002700200090FFF7F7FA617888425EDD03
:1081E00000BFA1782868884245D12078022808D0AD
:1081F0002078042805D02078072802D02078092884
:1082000023D1A868F8B1607800EB8000794901EBD0
:108210004000807920B90926607801F0E6FE29E067
:10822000601CA96888470646022E23D12868CF28FB
:1082300000D90126E07800909DF80020211D601DE6
:1082400003F09BF816E00A2614E02078052805D0F4
:1082500020780B2802D020780D280AD1E86830B1A8
:10826000621D6946601CEB689847064602E00B26D3
:1082700000E00C2612E0617801EB81015C4A02EB20
:10828000810108698047791CC9B20F46884205DD23
:1082900005F1140005460068FF28A2D900BF9DF82B
:1082A0000000401CE07026713046F8BD2DE9F8430F
:1082B00005460F469046AC1D05F11B0004F1110365
:1082C000621C39460090284603F0FDFF064601284F
:1082D00027D104F11100FFF771FF0646032E20D0CD
:1082E000FFF7C3F9FDF79CFE607C022812D0607C8A
:1082F00005280FD0607C072802D0607C0B2801D1B4
:10830000012E07D0607C092802D0607C0D2808D19E
:10831000012E06D0607CFFF739FF6074204603F021
:108320007BFE0120BDE8F88310B54FF4806232492E
:10833000324800F057FA4FF480623149294800F082
:1083400051FA00BF00202F494870887008712E48EC
:10835000C1F808012D48C1F80C0100BF00BF002082
:108360001F49487001208870002008712848C1F812
:1083700008012848C1F80C0100BF8022264927487F
:1083800000F030FA80222649184800F02BFA00BF8E
:108390000020244948708870012008712248C1F8E3
:1083A00008012248C1F80C0100BF00BF00200E499F
:1083B00048700120887008711548C1F808011B48F1
:1083C000C1F80C0100BF1A4B05220021022001F068
:1083D0004DF910BD0249C1F808017047AC120020E8
:1083E0003C0B00201C0200207C0E00205C0C0020B6
:1083F000C4E10008EC0100202C0200200C02002047
:108400002C0600202C0A0020AD8200088B86000874
:10841000CD690008C38500086C0C00204C0C0020BE
:10842000EC0C00206C0D00206381000855840008CE
:108430004F81000810B504460622C749204600F0C7
:108440001FFA10BD10B504460622C449204600F0AC
:1084500017FA10BD2DE9F04106460C4600BF04B9DD
:1084600067E000BF00BF204600F0D2F9012800D12C
:108470005FE000BF0622B849204600F0B1FA054689
:10848000A56000BF204600F0C3F9012800D150E0EC
:1084900000BF0725A0682844401E6168B0FBF1F2C8
:1084A00001FB12002168085C0830054400BFFA2D6A
:1084B00000D935E000BF00BF204600F0D2F9A84245
:1084C00000D236E000BF00BFA0682844801F61686A
:1084D000B0FBF1F201FB12070623A04A3946204601
:1084E00000F0ACFA00B91BE000BF00BF2A463146DD
:1084F000204600F0FAF900B91BE000BFB57900BFD3
:10850000A81C81B2F01D02F08DFF00B111E000BF88
:108510002A46F11D304602F030FF2846BDE8F081C2
:10852000A068801D6168B0FBF1F201FB1200A06041
:1085300000BF0020F2E72DE9F04106460F46154640
:1085400000BF06B93BE000BF00BF062282493046AB
:1085500000F096F900B932E000BFA9B2384602F047
:1085600061FF044600BFE9B2304600F0FCF900B9F3
:1085700025E000BF00BF2A463946304600F080F9AA
:1085800000B91CE000BF00BF2112304600F0EBF93B
:1085900000B914E000BF00BFE1B2304600F0E3F9DB
:1085A00000B90CE000BF00BF06226C49304600F065
:1085B00067F900B903E000BF0120BDE8F0810020A9
:1085C000FBE72DE9F04106460C4600BF04B95AE02E
:1085D00000BF00BF204600F044F9062800D852E052
:1085E00000BF06225C49204600F0FAF90546A56066
:1085F00000BF204600F00CF9012800D143E000BF85
:10860000A068801D6168B0FBF1F201FB12002168D7
:108610000D5C00BF012D00D12CE000BF0C3500BF68
:10862000FA2D00D926E000BF00BF204600F019F95E
:10863000A84200D227E000BF00BFA0682844801FE6
:108640006168B0FBF1F201FB12070623434A394689
:10865000204600F0F3F900B90CE000BF00BF2A4645
:108660003146204600F041F900B90CE000BF284631
:10867000BDE8F081A068801D6168B0FBF1F201FBEC
:108680001200A06000BF0020F2E770B504460E465D
:1086900031462046FFF795FF054665B1A01D02F063
:1086A000A2FD40B9A07E00F11D05601906222B49EC
:1086B00002F038FEAD1D284670BDF0B5C1B00646CB
:1086C0000F46144600BF06B944E000BF00BFFA2CB5
:1086D00000D93FE000BF2246394601A802F022FE41
:1086E000A1B201A802F09EFE054600BF06221A496B
:1086F000304600F0C5F800B92CE000BF2A12204631
:10870000641C01A90A542046641C0D5400BFE1B248
:1087100001A802F040FD00B91CE000BF9DF8044034
:1087200000BFFA2C00D915E000BF00BF224601A906
:10873000304600F0A5F800B90CE000BF00BF0622EB
:108740000649304600F09CF800B903E000BF012064
:1087500041B0F0BD0020FBE728E200082EE200084F
:10876000014604E00A2000E0401E0028FCD10A1E59
:10877000A1F10101F6D1704710B5044605E0FEF7FE
:10878000C4FC40F2E630FFF7EBFF201EA4F1010429
:10879000F5D110BD70B506460C46154626B1012E22
:1087A00009D0022E12D109E0022001F07DFB0C4815
:1087B00000F0CEFF0BE0FEF7A9FC08E02DB12B4640
:1087C00005220021084600F051FF00E000BF00BF75
:1087D00024B1012C02D0204601F08EFD70BD0000B6
:1087E00023600008034600BF0BB90020704700BF9C
:1087F00019605A600020D86098600120F6E700BF39
:1088000000B9704700BF00218160C16000BFF8E778
:108810000146D1E90202904201D1012070470020B7
:10882000FCE70146C868401C4A68B0FBF2F302FB53
:1088300013008A68904201D1012070470020FCE7B4
:108840000146D1E90202904204D9D1E90202801A1C
:10885000401E7047D1E901021044CA68801A401EC8
:10886000F7E70146D1E90220904205D24A68C8687C
:1088700010448A68801A7047D1E90220801AFAE70A
:108880002DE9F04104460F46154600BF14B90020FB
:10889000BDE8F08100BF00BF2046FFF7D1FFA8422E
:1088A00001D20020F4E700BFE1686068401AA842E6
:1088B00003D2E1686068401A00E028460646E26894
:1088C000216888183246394602F02CFDAA1BB919D6
:1088D000206802F027FDE06828446168B0FBF1F2EF
:1088E00001FB1200E0600120D2E72DE9F0410446CF
:1088F0000E46154600BF14B90020BDE8F08100BF48
:1089000000BF2046FFF784FF012801D10020F4E7D3
:1089100000BF00BF2046FFF7A4FFA84201D20020FD
:10892000EBE700BFD4E90101401AA84203D2D4E921
:108930000101401A00E028460746A2682068811815
:108940003A46304602F0EEFCEA1BF019216802F0CC
:10895000E9FCA06828446168B0FBF1F201FB120059
:10896000A0600120C9E770B504460D4600BF0CB9F0
:10897000002070BD00BF00BF2046FFF752FF012856
:1089800001D10020F5E700BFE16820684554E068A8
:10899000401C6168B0FBF1F201FB1200E0600120B5
:1089A000E7E710B503460C4600BF0BB9002010BD29
:1089B00000BF00BF1846FFF72BFF012801D10020A0
:1089C000F5E700BF99681868405C20709868401C03
:1089D0005968B0FBF1F201FB120098600120E6E754
:1089E000F0B503460C46154600BF0BB104B10DB9F6
:1089F0000020F0BD00BF9968002212E01868405CBA
:108A0000A65CB04205D1501C0246A84202D1521EBB
:108A10000AE00022481C5E68B0FBF6F706FB170070
:108A20000146D8688842E9D100BF58680844801AD6
:108A30005E68B0FBF6F706FB1700DAE7F0B5044610
:108A40000D4600BF206800B10AB90020F0BD00BF8C
:108A500000210EE068186668B0FBF6F706FB170009
:108A60002668365C12F8017BBE4201D00020EDE79B
:108A7000491C9942EED30120E8E7000010B580229E
:108A800023492448FFF7AEFE10BD1CB507226946F6
:108A90002048FFF72AFF58B1DDF803309DF8022087
:108AA0009DF801109DF8000002F04CFF01201CBD54
:108AB000FFF7E4FF0020FAE72DE9FC4105460C46EC
:108AC00016461F4605EB8500134901EB40008079EF
:108AD00018B9C72C16DDDD2C14DA8DF800508DF88E
:108AE00001408DF80260CDF80370072269460948FD
:108AF000FFF7C6FEAFF26D03C8220021032000F08D
:108B0000B5FD02E0284601F070FABDE8FC810000E6
:108B10009C0F00208C0F0020EC01002025207047C6
:108B200010B5002001F0C0F910BD10B5044601F0E9
:108B3000B5FB03F0F1FF02F079FE01F042FEFFF712
:108B40009DFFFA4802F07AFB002207210220FFF77E
:108B500021FEAFF233034FF47A720021084600F091
:108B600085FD10BD2DE9F05F83460C4615460026B5
:108B700002F0CEFB0746D7F810A0D7F80080D7F850
:108B800004900020207042F2D8702178685220783A
:108B9000801C20702178DAF8080068502078001DC9
:108BA0002070E349D9F80000884201D1C01701E0E4
:108BB000D9F80400217868502078001D20702178B1
:108BC000D8F8000068502078001D207008F12406B5
:108BD00005E031782278501C2070A954761C30783A
:108BE0005A2802DC30783028F3DA0120BDE8F09F03
:108BF0002DE9F04105460C46164602F089FB8046F9
:108C0000D8F81070A87850B1B5F803107868884289
:108C100005D0B5F803004FF6FF71884210D100204F
:108C20002070B888217870522078801C20702178BC
:108C3000B86870502078001D20700120BDE8F081D8
:108C40001220FBE710B50446A078042801DCA078C8
:108C500008B90F2010BDD4F80300B449091F0860FB
:108C6000042001F064FB08B91020F3E70120F1E7CC
:108C70000346AE48001F0068106004200870012001
:108C8000704770B504466568E67815B1B5F1FF3FE9
:108C900001D10E2070BD3146284601F080FBF9E776
:108CA00070B506460C46154601F0B3FB286004205B
:108CB0002070012070BD03469C48001F4068106072
:108CC000042008700120704710B50446E07805289C
:108CD00001DCE07808B90F2010BDE0789349091F46
:108CE00008720831012001F022FB08B91020F3E7D7
:108CF0000120F1E703468D48001F007A1070012023
:108D00000870704770B50546A878192806DCA87861
:108D1000052190FBF1F201FB120008B10F2070BD9C
:108D2000A878052190FBF1F0C6B200240EE004EB18
:108D30008401E81C405C28B104EB8401E81C405C21
:108D4000052801DD0E20EAE7601CC4B2B442EEDB68
:108D5000002410E004EB8400401CE91C0A5804EBDA
:108D60008401E81C405C401E7049891D01EB8000B5
:108D70000260601CC4B2B442ECDB6C49891D142053
:108D800001F0D5FA08B91020C9E70120C7E7F0B50E
:108D900003460C460025D878FF2827D100202070F4
:108DA000002120E06148801D00EB81000068C0B117
:108DB0005E48801D00EB81000068401C88B1481CA3
:108DC00005EB850690555948801D00EB810006682B
:108DD00005EB8507501CC6512078401D2070681C8B
:108DE000C5B2481CC1B20529DCDB13E0D87810B14C
:108DF000D878052801DD0F20F0BDD8781070D8781C
:108E0000401E4A4EB61D06EB80000068C2F8010005
:108E1000052020700120EFE710B50446E07808B186
:108E2000012000E000204149091F88771E31012000
:108E300001F07DFA08B9102010BD0120FCE70346BF
:108E40003A48001F807F012800D100E00020107008
:108E500001200870704770B50446A078052801DC31
:108E6000A07808B90F2070BDE078C0B9012511E0E5
:108E700005EB85012F4A606842F8110005EB85007B
:108E800002EB4001042001F072FA08B91020EAE771
:108E9000681CC5B2FEF798FCA842E9DC18E0FEF7B2
:108EA00093FCE178884201DC0E20DCE7E17801EBFD
:108EB0008101204A606842F81100E07800EB8000F0
:108EC00002EB4001042001F052FA08B91020CAE771
:108ED0000120C8E72DE9F04104460D461646A0786A
:108EE000032801DCA07810B90F20BDE8F081E078FC
:108EF000A0B90127002028700BE007EB87000D497F
:108F000051F81000297870502878001D2870781CBE
:108F1000C7B2FEF759FCB842EFDC16E0FEF754FC8E
:108F2000E178884208DC0E20DFE70000B012002064
:108F3000558778AAEC010020E07800EB8000F74923
:108F400051F810003060042028700120CDE770B582
:108F50000446A078032801DCA07808B90F2070BD72
:108F6000E078D0B9012513E0A08805EB8501EB4A34
:108F700002EB4101888005EB850002EB4000011DFA
:108F8000022001F0F4F908B91020E8E7681CC5B226
:108F9000FEF71AFCA842E7DC1AE0FEF715FCE178C0
:108FA000884201DC0E20DAE7A088E17801EB81013C
:108FB000DA4A02EB41018880E07800EB800002EBA6
:108FC0004000011D022001F0D2F908B91020C6E7C7
:108FD0000120C4E72DE9F04104460D461646A0786D
:108FE000032801DCA07810B90F20BDE8F081E078FB
:108FF000A8B90127002028700CE007EB8700C749BB
:1090000001EB40008088297870522878801C2870F5
:10901000781CC7B2FEF7D8FBB842EEDC10E0FEF7D2
:10902000D3FBE178884201DC0E20DEE7E07800EB3C
:109030008000BA4901EB400080883080022028700F
:109040000120D2E770B50446A078022801DCA078A0
:1090500008B90F2070BDE078D0B9012513E0207960
:1090600005EB8501AD4A02EB4101C87105EB8500B6
:1090700002EB4000C11D012001F079F908B9102070
:10908000E8E7681CC5B2FEF79FFBA842E7DC1AE0E0
:10909000FEF79AFBE178884201DC0E20DAE72079BE
:1090A000E17801EB81019D4A02EB4101C871E07852
:1090B00000EB800002EB4000C11D012001F057F9D8
:1090C00008B91020C6E70120C4E72DE9F0410446A5
:1090D0000D461646A078022801DCA07810B90F20B2
:1090E000BDE8F081E078A8B90127002028700CE0E5
:1090F00007EB8700894901EB4000C079297870545B
:109100002878401C2870781CC7B2FEF75DFBB84277
:10911000EEDC10E0FEF758FBE178884201DC0E201F
:10912000DEE7E07800EB80007C4901EB4000C0798D
:109130003070012028700120D2E770B50446A07875
:10914000032801DCA07808B90F2070BDE07808BBC7
:1091500001251AE0207905EB8501704A02EB4101F7
:109160000872607905EB850102EB4101487205EB5D
:10917000850002EB400000F10801022001F0F7F841
:1091800008B91020E1E7681CC5B2FEF71DFBA84234
:10919000E0DC22E0FEF718FBE178884201DC0E20DB
:1091A000D3E72079E17801EB81015C4A02EB4101D0
:1091B00008726079E17801EB810102EB41014872AC
:1091C000E07800EB800002EB400000F10801022093
:1091D00001F0CDF808B91020B7E70120B5E72DE977
:1091E000F04104460D461646A078032802DD0F2004
:1091F000BDE8F081E07808B1A078F0B9012700203F
:10920000287015E007EB8700444901EB4000007A25
:109210002978705407EB8700404901EB4000417A00
:109220002878401C31542878801C2870781CC7B2DC
:10923000FEF7CAFAB842E5DC17E0FEF7C5FAE178B6
:10924000884201DC0E20D3E7E07800EB8000334950
:1092500001EB4000007A3070E07800EB800001EB19
:109260004000407A7070022028700120C0E770B57D
:109270000446A078052801DCA07808B90F2070BD4D
:10928000E078D0B9012513E0207905EB8501234A68
:1092900002EB4101887105EB850002EB4000811D66
:1092A000012001F064F808B91020E8E7681CC5B295
:1092B000FEF78AFAA842E7DC1AE0FEF785FAE178C1
:1092C000884201DC0E20DAE72079E17801EB8101A8
:1092D000124A02EB41018871E07800EB800002EB5A
:1092E0004000811D012001F042F808B91020C6E7B6
:1092F0000120C4E72DE9F04104460D461646A0784A
:10930000032802DD0F20BDE8F081E07808B1A078E5
:10931000C0B90127002028700FE00000EC010020F8
:1093200007EB8700A34901EB40008079297870544E
:109330002878401C2870781CC7B2FEF745FAB8425E
:10934000EEDC10E0FEF740FAE178884201DC0E2006
:10935000D9E7E07800EB8000964901EB4000807986
:109360003070012028700120CDE72DE9F04104463E
:109370000D461746E178207901EB002086B260792E
:10938000822802DD0E20BDE8F081B6F5004F01DB3A
:109390001120F8E760793044B0F5004F02DD7042EB
:1093A000287001E06079287029783A46304602F04A
:1093B00071F808B91020E6E70120E4E710B504468B
:1093C000A07810B900F063FF08E0A078052805D167
:1093D000E1788800221D042102F098F8012010BDD8
:1093E00070B506460C4615462946204600F094FF07
:1093F000012070BD10B50446A078012801DD0F20C2
:1094000010BDA078012805D1E07818B9022000F03D
:1094100023FF1CE0A07818B9012000F01DFF16E022
:10942000FEF7D2F9E17888420FDDE07800F0B7FE70
:10943000E07800F095FEE07800F06AFEE07801F058
:10944000D3F9E07802F070FD01E00E20D8E70120AA
:10945000D6E770B50446A07808B90F2070BDE07853
:10946000022804D003280ED005281FD114E020794B
:10947000611D02F0E5FB0546012D02D1A07002201E
:10948000ECE72846EAE76179207902F08CFC0128B4
:1094900000D1E3E71520E1E761792079A21D02F010
:1094A0000AFC012800D1D9E71620D7E700BF00BF8A
:1094B0000E20D3E770B504460D461646E078012825
:1094C00002D0042814D109E06179207933462A4674
:1094D00002F017FC012800D170BD0AE06179207903
:1094E00033462A4602F043FC08B10120F4E700E0CD
:1094F00000BF00BF1520EFE770B50446A07808B99B
:109500000F2070BDE078022804D003280ED0052873
:109510001FD114E02079611D02F067FC0546012D82
:1095200002D1A0700220ECE72846EAE761792079B1
:1095300002F039FC012800D1E3E71520E1E7617969
:109540002079A21D02F0ABFC012800D1D9E716203A
:10955000D7E700BF00BF0E20D3E710B50446A078C0
:1095600008B90F2010BDE07818B9012002F02AFBDD
:1095700005E0E07802F0D8FC08B91720F2E70120F6
:10958000F0E77CB506460D46144600200190FF200A
:109590000090694601A8FCF754F9012808D1019808
:1095A00020609DF8000020710520287001207CBDFE
:1095B0001220FCE7EC0100200020C9490860704738
:1095C00030B503460C4619460AE00846491CC44D0E
:1095D0002D1D05EB0010C068904201D1C8B230BD0E
:1095E000A142F2D30020FAE77FB50546BC4A1288B3
:1095F000BB4B5B88D118BA4A10882A46FFF7E0FFB8
:10960000044694B3B6480088201A012824D9601E65
:10961000B34A121D02EB00111022684601F082FECF
:10962000AF4B1B88E31A1A01AD4B1E881B1D03EBC1
:1096300006111B1F1B885B1CA94E361D06EB031071
:1096400001F09BFE311F0A88091D01EB0210102258
:10965000694601F067FE00BFA1480088401CA04990
:10966000088008464088401E48807FBD2DE9F041B3
:109670000746884615461E4600BF99480088984907
:1096800049880844142802DB0020BDE8F08100BFAF
:1096900093480088924A5288811832460020FFF78A
:1096A0008FFF00BB8E4B5B881A018D4BB3F800C057
:1096B0001B1D03EB0C111B1F1B885B1CDFF820C25A
:1096C0000CF1040C0CEB031001F057FE84480488E5
:1096D0000088401C8249088000218148001D00EB61
:1096E000041001700CE03046FFF77EFF7C480088D4
:1096F0007B4A5288811832460020FFF761FF441EE2
:109700007748001D00EB041047707548001D00EB02
:109710000410C6604FB905B96D1C4FF00108002157
:109720006F48001D00EB041001706D48001D00EB38
:109730000410A0F802806A48001D00EB0410456088
:1097400000216748001D00EB0410816001209CE7A8
:1097500070B5054662480088614A528881182A46D9
:109760000020FFF72DFF044604B35D4B1B885C4EC1
:10977000768833441B1B1A01594B1B1D03EB041144
:10978000631E574E361D06EB031001F0F6FD301F29
:109790000088A04205D2301F4088401E311F4880FB
:1097A00004E04F480088401E4D49088070BD7FB5D9
:1097B00005464B4801882A460020FFF701FF044672
:1097C00054B3601E464A121D02EB00111022684677
:1097D00001F0A8FD424B1B881B1B1A01404B1B1DAF
:1097E00003EB0411631E3E4E361D06EB031001F021
:1097F000C4FD311F0988491E8AB2311F0A80091D24
:1098000001EB02101022694601F08CFD301F4088E8
:10981000401C311F488000BF7FBD70B50024304C14
:10982000241D27E0207820B3E568002020706078B0
:1098300030B1012807D002280FD0032816D10EE03E
:109840000120207000BF6188481E608021B9284631
:10985000FFF77EFF103C0AE000BFA84707E0A847DB
:1098600018B92846FFF774FF103C00E000BF00BFA6
:1098700000BF10341A480188001D00EB0110A042FF
:10988000D0D870BD1648001D0AE08168491C81606F
:109890004268914203D300218160012101701030A0
:1098A0000F490A88091D01EB02118142EDD870476A
:1098B00070B504460A480088094A52888118224631
:1098C0000020FFF77DFE05460DB9002070BD04485D
:1098D0000088801CA84201DD0120F7E70220F5E79F
:1098E0001C100020F0B5A1B00446A07800282ADDA5
:1098F000A778E51C21E0A878802802DD0F2021B0A0
:10990000F0BD02208DF80400A878C21C29460DF194
:10991000050001F007FD01A8FEF750FC0646012EE8
:1099200008D0BDF80500A4F8030066710320A070FC
:109930000220E4E7A878C01C0544E01C3844A84293
:10994000D9D80120DBE70F20D9E72DE9F043C1B0DA
:1099500007460C46164600202070B878002840DDE7
:1099600097F8029001A800EB090580464A46F91CC9
:10997000404601F0D7FC2EE00520287018F8010BB6
:10998000687018F8010BA8700020E8702846FEF7F0
:1099900015FC01281FD169782278501C2070B15421
:1099A000A9782278501C2070B154E878401EC1B2CA
:1099B000E9702278501C2070B154EA782178881917
:1099C000691D01F0AFFC2078E97808442070207808
:1099D000C82800DD03E001A848444045CCD800BFBA
:1099E00050E04FF00008387800EB8000624901EB4E
:1099F0008000C56800BF287901282DD138788DF8FE
:109A0000000128788DF8010100208DF80201E86836
:109A100010B32078C01C82190DF2031140A8EB6826
:109A20009847012818D139782278501C2070B154F9
:109A300029782278501C2070B1549DF803112278A7
:109A4000501C2070B15420789DF8031108442070F8
:109A50002078C82800DD13E0397801EB8101464AFF
:109A600002EB81010869804708F10101C9B288460B
:109A7000884205DD05F1140005460068FF28BAD9C3
:109A800000BF00BF012041B0BDE8F08370B50446BF
:109A9000FDF79AFE0546A078012801D00F2070BD81
:109AA000E078A84201D30E20F9E7E078A8B9FDF7E5
:109AB0008BFE05460EE06D1E05EB85002E4901EB81
:109AC0008000806830B105EB85012B4A02EB8101F3
:109AD00088688047002DEED10FE0E07800EB800031
:109AE000254901EB8000806838B1E17801EB810104
:109AF000214A02EB810188688047204B3222C8212D
:109B00000120FFF7B3FD0120C9E7F0B5B3B004466B
:109B10000E46002704EB8400174901EB8000C5685E
:109B20008DF804408DF8056000208DF8060000BF18
:109B30002868B0420CD1E86850B102AA511E01A8B1
:109B4000EB689847012803D19DF8070033B0F0BDBA
:109B500004EB8401084A02EB810108698047791C03
:109B6000C9B20F46884205DD05F1140005460068BC
:109B7000FF28DDD90020E9E7C4E1000823600008E0
:109B800070B50446002501F0C3FB0646A07900F03D
:109B9000030008B1212070BDB74800684FF0006194
:109BA000D1F88813451A20688068A84201D920207E
:109BB000F1E74FF48072002104F1080001F0D4FBBA
:109BC000AE4A04217068FCF76FFA22689168AA4ACD
:109BD000121F1068FCF726FADDE7F8B504460025E9
:109BE000A748009001F094FB0646A6480078F028AC
:109BF00044D12079022832D107200059A2490968AE
:109C00008860A149E06809684860E07A9E498871E7
:109C10009E48096808609C48006880689A4989796C
:109C2000B0FBF1F0984909688968974A9279B1FBCD
:109C3000F2F302FB131109B1012100E000210844F5
:109C4000914988800846FFF79BFF0546012804D10B
:109C5000F1208C4908700120F8BD2846FCE72079E6
:109C6000012814D16A4604213069FCF71DFA8249A3
:109C7000091F0868FDF7BCF80020EDE7814800786F
:109C8000F12801D10120E7E700207E4908700E206D
:109C9000E2E72DE9F04104460D4617467A488088F0
:109CA000401EA04201D3C82D02DD0020BDE8F08196
:109CB00061097548083050F8210004F01F020121A5
:109CC00091400840F0B96C48001F00686E498979DE
:109CD00004FB01063A4629463046FCF7C2F978B142
:109CE00061096948083050F8210004F01F02012181
:109CF0009140084362096449083141F8220001E0BB
:109D00000020D3E70120D1E730B502460B46002101
:109D10000020107014E04C095B48083050F8240013
:109D200001F01F050124AC40204040B923F8021B7C
:109D30001078801C10701078642800DD04E0491C45
:109D4000514880888842E6D800BF107808B90120C1
:109D500030BD0020FCE770B505460C46A9B2464A66
:109D6000121F106801F05EFB201A84B20CB90120AA
:109D700070BD0020FCE710B586B001F0C9FA0446BA
:109D8000FCF747FA3D49086001AA1421A068FCF7D6
:109D900080F9394A121F12684FF00063D3F88433F8
:109DA000D11A354A083A1068FCF73CF901AA142187
:109DB000A068FCF756F930B1304A0C216068FCF716
:109DC00050F906B010BD0020FBE770B5064601F063
:109DD0009FFA05466C692E48066011E0FCF719FAF7
:109DE0002168884205D12A4A10212046FCF739F91A
:109DF00070BD274A121D0C21201DFCF74AF91034B2
:109E00001D48001D0068A042E8D8224A1021286998
:109E1000FCF73FF9184A121D12684FF00063D3F89F
:109E20008C33D11A2869FCF7FDF81A4A10212869E9
:109E3000FCF717F93046FFF7C8FFD9E770B501F016
:109E400067FA05466C6906E0FCF7E3F92168884289
:109E500000D105E010340848001D0068A042F3D886
:109E600000BF103C2068492804D320685D2801D831
:109E7000207870BD5320FCE78C030008701100208F
:109E8000A53CC35A5C00002060000020558778AADA
:109E90007C1100206011002010B58E4B0122FF21A3
:109EA000002002F036F910BD70B5054689480570EE
:109EB000012D02D14FF47A7400E00524864B22462E
:109EC00000210846FFF7D2FB70BD30B5C1B0044693
:109ED0004FF4807101A803F0C9FBFDF775FC05463E
:109EE00019E014B1A54201D005B1A4B98DF8045010
:109EF0009DF808100DF10A000A18C11E01A8FFF70D
:109F000024FD8DF809009DF808009DF8071008440D
:109F1000C0B28DF80800281EA5F10101CDB2E0D134
:109F20009DF80800401CC0B28DF808009DF808207C
:109F30000DF109030021084602F0CCF841B030BD14
:109F400010B5FDF741FC044634E004EB840063499E
:109F500001EB4000007A30B304EB4400604901EBB0
:109F60008000007A012825D104EB440051F820003C
:109F7000401C04EB44015A4A42F8210000EB8000E7
:109F800004EB440102EB81014968B1EB800F11D869
:109F90002046FFF79AFF002004EB4401504A02EBF1
:109FA0008101087206E0002004EB44014C4A02EBF8
:109FB00081010872601EC0B2041EC6D101240AE0ED
:109FC00004EB4400464901EB8000007A012800D1EF
:109FD00010BD601CC4B2FDF7F7FBA042F0DCAFF28D
:109FE0009F00FFF7B5FB00BFF2E770B506461EB154
:109FF0003446701CC5B203E00124FDF7E5FB0546BD
:10A0000035E004EB8400354901EB4000007A28B3C9
:10A01000FCF7BBFF04EB8401304A02EB4101497AB3
:10A02000B0FBF1F201FB12006421484300EB800019
:10A0300040F6C41101EB400004EB4401284A02EB56
:10A0400081014860002004EB440142F82100012016
:10A0500004EB440102EB8101087206E0002004EBEE
:10A0600044011F4A02EB81010872601CC4B2AC4279
:10A07000C7DBAFF23313142200210220FFF7F6FAF8
:10A0800070BDF0B5C1B005460E46174600244FF42A
:10A09000807101A803F0EAFA31462846FFF735FD42
:10A0A0000446A4B101208DF804008DF805508DF808
:10A0B00006608DF807402246394602A801F032F9C1
:10A0C000201DC2B201AB0021084602F003F841B0E6
:10A0D000F0BD000068010020999E0008EC010020FE
:10A0E0008C11002010B54FF408720021FE48006862
:10A0F00001F03AF900224FF400714FF4C06001F012
:10A1000041FA002220214FF4406001F03BFA10BDDB
:10A110002DE9F05F8246504603F0B0FD80460022F4
:10A12000F24B03F0BFFD064600224FF0814303F0DF
:10A1300031FB044603F05EFD83460022282101F036
:10A1400021FABDE8F09F10B5012404E02046FFF796
:10A15000DFFF601CC4B2FDF737FBA042F6DC10BD88
:10A1600010B5044604EB8400E14901EB800040682F
:10A1700038B104EB84000A4602EB800041682046B7
:10A18000884710BD10B5002404E02046FFF7E8FF23
:10A19000601CC4B2FDF718FBA042F6DC10BD10B580
:10A1A00004464FF0FF3004EB8401D24A42F811001C
:10A1B000002004EB840102EB41018880012004EBC4
:10A1C000840102EB41018871002004EB840102EB61
:10A1D0004101C871012004EB840102EB41010872C6
:10A1E000032004EB840102EB4101487204EB84017B
:10A1F000134603EB4102210101F180000A2101F025
:10A2000085F910BD10B5002404E02046FFF7C7FF14
:10A21000601CC4B2FDF7D8FAA042F6DC10BD10B540
:10A220004FF0FF30B44908600020FCF715FEB2493A
:10A230004860022008720020487214220021AE48B3
:10A240000A3001F091F80020AB4988770A461F21B7
:10A25000402001F05BF910BD38B50446A7A00068A6
:10A260000090FFF7DCFFFFF7CDFFFFF78BFFFFF755
:10A270006AFFFFF737FF012001F0A4FC022C02D196
:10A28000684601F09DFA0120FFF70EFE38BD10B5BB
:10A2900000224021104601F075F910BD10B5964A14
:10A2A0001F21402001F0F6F893494868FCF7D4FDDF
:10A2B000C0B1AFF21703322200210846FFF7D6F9EA
:10A2C0008F480078401CC0B28D490870032812DD09
:10A2D000AFF23700FFF73CFAFFF7D9FF0120FFF795
:10A2E000BBFF08E086480078002804DD0020844990
:10A2F0000870FDF76BFA10BD38B50446A0006A4639
:10A30000042101F0C7F80098401C0090A0006A46A4
:10A31000042101F0FBF838BD70B504460D4640201D
:10A32000207021782A46002001F0B4F870BD70B585
:10A3300005460C467049611A01F140002246294643
:10A3400001F0E4F870BD70B504460D4609E004EB79
:10A35000840105EB4102210101F180000A2101F095
:10A3600099F8201EA4F10101CCB2F0D170BD2DE905
:10A37000F04105460C465F48261A0A20B6FBF0F06D
:10A38000000180300A21B6FBF1F201FB126147188F
:10A3900022462946384601F0B9F8BDE8F0812DE99A
:10A3A000FF4706460F4600244FF0040A00F0B0FFB6
:10A3B0008046D8F800500096DFB901E0601CC4B2B6
:10A3C000042C07DAFBF725FF05F10C0151F82410E6
:10A3D0008842F3D1042C0ADA0C2101EB84014819DC
:10A3E0006A460421FBF73DFE04B0BDE8F087232058
:10A3F000FAE7FBF70EFF00F0FF090C22494601A81F
:10A4000000F0B2FF6A46102105F10C00FBF74CFE8C
:10A41000EAE72DE9F041002400F07AFF06463568AE
:10A42000042701E0601CC4B2042C07DAFBF7F1FE3C
:10A4300005F10C0151F824108842F3D184B1601E5B
:10A4400005F10C0151F8200050B1601E51F82000B8
:10A45000B0F1FF3F04D0601E51F82000BDE8F0814C
:10A460000120FBE72DE9F74F8CB089461446002008
:10A470000A902546E11704EB5171C81003F0E7FB81
:10A48000CDE90601484603F0F9FB064600221D4BC4
:10A4900003F008FCCDE904010C9803F0EFFB06463D
:10A4A0000022124B03F0FEFB00224FF08143CDE966
:10A4B000000103F06FF9CDE90201DDE9042303F0A7
:10A4C00069F98246DDE9062303F064F9CDE9080164
:10A4D00003F090FB80460AAA012100F0DBFF402C2C
:10A4E00062DAE11710E000006C0100200000444037
:10A4F000C4E10008EC010020AC12002000F8015378
:10A50000700100200000204004EB5171C910A4EB41
:10A51000C102012191409DF828201140002943D01B
:10A520002046E11704EB5171C910A4EBC1020121CF
:10A5300091409DF828208A430A92A246E11704EB35
:10A540005171C81003F083FBCDE90601484603F0C2
:10A5500095FB05460022FE4B03F0A4FBCDE902016A
:10A560000C9803F08BFB07460022FA4B03F09AFB92
:10A57000054600224FF0814303F00CF9CDE90001BC
:10A58000DDE9022303F006F9CDE90401DDE9062344
:10A5900003F000F9CDE9080103F02CFB83460AAA79
:10A5A000012100F0B3FF27E0FF2C25D1484603F03E
:10A5B00065FB05460022E64B03F074FBCDE9040180
:10A5C0000C9803F05BFB07460022E24B03F06AFBAA
:10A5D000054600224FF0814303F0DCF88246DDE9B6
:10A5E000042303F0D7F8CDE9060103F003FB0022B2
:10A5F0000821099000F0C6FF0FB0BDE8F08F2DE9EB
:10A60000F74F8CB08946144600200A902546E11782
:10A6100004EB5171C81003F01AFBCDE9060148465E
:10A6200003F02CFB06460022C94B03F03BFBCDE9AF
:10A6300002010C9803F022FB0022C64BCDE9000179
:10A6400003F030FB064600224FF0814303F0A2F8EE
:10A650008246DDE9022303F09DF8CDE90401DDE93E
:10A66000062303F097F8CDE9080103F0C3FA80460A
:10A670000AAA012100F00EFF402C50DAE11704EB8A
:10A680005171C910A4EBC102012191409DF828200D
:10A690001140002943D12046E11704EB5171C91044
:10A6A000A4EBC102012191409DF828201143C9B2B9
:10A6B0000A91A246E11704EB5171C81003F0C7FAE2
:10A6C000CDE90601484603F0D9FA05460022A04B21
:10A6D00003F0E8FACDE902010C9803F0CFFA07463F
:10A6E00000229C4B03F0DEFA054600224FF0814326
:10A6F00003F050F8CDE90001DDE9022303F04AF848
:10A70000CDE90401DDE9062303F044F8CDE90801B1
:10A7100003F070FA83460AAA012100F0F7FE0FB099
:10A72000BDE8F08F2DE9F74F8CB089461446002024
:10A730000A90A246E11704EB5171C81003F087FAA2
:10A74000CDE90601484603F099FA05460022804B00
:10A7500003F0A8FACDE902010C9803F08FFA07463E
:10A7600000227C4B03F09EFA054600224FF0814305
:10A7700003F010F8CDE90001DDE9022303F00AF847
:10A78000CDE90401DDE9062303F004F8CDE9080171
:10A7900003F030FA83460AAA012100F07BFEE1179C
:10A7A00004EB5171C910A4EBC102012191409DF845
:10A7B0002820114019B101200FB0BDE8F08F002012
:10A7C000FAE710B564484FF4007102684FF4C060B6
:10A7D00000F060FE6048026802F5007220214FF42C
:10A7E000406000F057FE10BD70B50546002425B945
:10A7F000FCF7EAFFA84200DA70BD35E05648006871
:10A8000000EB44004078B5EBD00F2BD1E21704EBFE
:10A810005272D310504A126802F50072D25C21467F
:10A82000E31704EB5373DB10A4EBC3060123B3401F
:10A830009A432046E31704EB5373DE10464B1B6824
:10A8400003F500739A554449096801EB440002225C
:10A85000002100F089FD610001F5C06000220221A5
:10A8600000F090FE601C84B2FF2CC7DD3A480268FD
:10A8700002F5007220214FF4406000F047FE00BF57
:10A88000BAE710B503460C4600211AE032480068CA
:10A8900000EB41004078B3EBD00F10D12E48006898
:10A8A00000EB4100407800F00700A04207D12A48A1
:10A8B000006810F81100904201D1084610BD481CF4
:10A8C00081B2FF29E2DD4FF6FF70F7E770B504466D
:10A8D000E21704EB5272D3101F4A126802F500729D
:10A8E000D25C2146E31704EB5373DB10A4EBC305E2
:10A8F0000123AB409A432046E31704EB5373DD106A
:10A90000154B1B6803F500735A552546E11704EBF8
:10A910005171CB101049096801F500715A1826468B
:10A92000E11704EB5171C91001F54060012100F0FD
:10A93000EDFD0949096801EB44000222002100F005
:10A9400013FD610001F5C0600022022106E0000055
:10A9500000002040000044406C01002000F012FE86
:10A9600070BD70B504462046E21704EB5272D31056
:10A97000E64A126802F50072D25C2146E31704EB46
:10A980005373DB10A4EBC3050123AB401A43D3B2CE
:10A99000E21704EB5272D510DC4A126802F500721D
:10A9A00053552546E11704EB5171CB10D74909687F
:10A9B00001F500715A182646E11704EB5171C910D0
:10A9C00001F54060012100F0A1FD70BD2DE9F041CD
:10A9D00006460F4615464FF00008402D0DDAEAB244
:10A9E00039463046FFF74DFF80464FF6FF718842EB
:10A9F00003D04046FFF76AFF50E0FF2D4ED1002400
:10AA000041E0C248006800EB44004078B6EBD00F4C
:10AA100037D1BE48006800EB4400407800F00700E2
:10AA2000B8422ED1E21704EB5272D310B74A126823
:10AA300002F50072D25C2146E31704EB5373DB107E
:10AA4000A4EBC30C012303FA0CF39A432046E3174B
:10AA500004EB53734FEAE30CAC4B1B6803F5007334
:10AA600003F80C20A949096801EB440002220021E7
:10AA700000F07AFC610001F5C0600022022100F0C4
:10AA800081FD601C84B2FF2CBBDDA048026802F58A
:10AA9000007220214FF4406000F038FDBDE8F081E5
:10AAA0000146082901DA00207047102901DA8020C8
:10AAB000FAE7202901DAC020F6E74FF48070F3E7C7
:10AAC00001464FF44860802902DA00EBC10014E02F
:10AAD00000F58060A1F18002D1B2402902DA00EBDA
:10AAE00001100AE000F58060A1F14002D1B24029D6
:10AAF00002DA00EB411000E000BF704770B5054678
:10AB00000C462078411C2246284600F0FFFC70BD10
:10AB10002DE9F04105464FF6FF762846FFF7C0FFC6
:10AB200084B216E0E21704EB5272D310774A12682F
:10AB300002F50072D25CE31704EB5373DB10A4EB55
:10AB4000C3070123BB401A400AB9264603E0601C34
:10AB500084B2FF2CE6DD00BF3046BDE8F0812DE970
:10AB6000F05F0746884691461D464A4641463846AC
:10AB7000FFF787FE04464FF6FF70844229D0E017A6
:10AB800004EB5070C1106148006800F50070405C33
:10AB9000E11704EB5171C910A4EBC10201219140EE
:10ABA000084088B1E0B2802802DA4FF0000B06E0DE
:10ABB000C02802DA4FF0800B01E04FF0C00B28787C
:10ABC000FFF76EFF834504D02046FFF77FFE4FF668
:10ABD000FF744FF6FF70844235D12878FFF798FF55
:10ABE00004464FF6FF71884202D11120BDE8F09F64
:10ABF000E0B2FFF7B6FE00BF4448006800EB440037
:10AC0000407867F3C7004149096801EB4401487087
:10AC10003E48006800EB4400407868F302003B497E
:10AC2000096801EB440148703849096801F814903B
:10AC300000BF3649096801EB4402610001F5C060BC
:10AC4000022100F063FCE0B2FFF73AFF0646294616
:10AC5000FFF754FF0120C9E70146802901DA0820E7
:10AC60007047C02901DA1020FAE72020F8E72DE923
:10AC7000F04706460F4690461C4642463946304647
:10AC8000FFF7FFFD05464FF6FF7085420CD0E8B296
:10AC9000FFF7E2FF8146E8B2FFF712FF8246224645
:10ACA000494600F0F7FB01E000202070BDE8F08786
:10ACB00070B504460D4616466019B0F5004F02D82F
:10ACC000B4F5405F01D2112070BD324629462046BE
:10ACD00000F01CFC08B91020F6E70120F4E770B57D
:10ACE00004460D4616466019B0F5004F02D8B4F57B
:10ACF000405F01D2112070BD32462946204600F047
:10AD0000C9FB08B91020F6E70120F4E76C01002028
:10AD100010B504466248007808B1122010BD012029
:10AD20005F490870D4F803005E49086007200059A5
:10AD30004860E07A0872217B5A4841720D20015B1D
:10AD400058484181584B4FF47A7200210846FEF76B
:10AD50008DFC0120E2E75348006870475148007AB3
:10AD6000704703460D2008704E48006810604D483B
:10AD7000406850604B48007A10724A48407A5072DE
:10AD80004848408950814648007810730120704738
:10AD900070B50446002542480078012801D01220F1
:10ADA00070BD02203E490870D4F803003D49086098
:10ADB000072000594860E07A0872217B39484172C7
:10ADC0000D20015B374841810120FBF73BFA374BEF
:10ADD00041F2883200210846FEF748FCFBF739FAB9
:10ADE00005463048007A421C0021284600F0BCFA93
:10ADF0000120D5E703460D2008702A48006810603E
:10AE00002848406850602748007A10722548407AE8
:10AE100050722448408950812148007810730120E5
:10AE2000704710B50446214B41F288320021084694
:10AE3000FEF71CFCE078FF2812D1194800780228A0
:10AE40000ED11A48FEF784FC01F075FF184B4FF441
:10AE50007A7200210846FEF709FC002010490870AC
:10AE6000012010BD70B506460C4615460120207025
:10AE7000FBF7F1F92870012070BD10B504460020E1
:10AE8000074908700B48FEF763FC012010BD03461C
:10AE900001200870024800781070012070470000FF
:10AEA00085010020B81600201BCD000837CD000812
:10AEB00041CD0008C9CC000808B50146002000BFFC
:10AEC0000CE00A5C02F0F002C0F10303CB5C03F07B
:10AED0000F031A430DF80020421CD0B20328F0DD06
